{
  "address": "0x793A271E17a54e47B12B968ad516FAFC69860463",
  "abi": [
    {
      "inputs": [
        {
          "internalType": "string",
          "name": "_name",
          "type": "string"
        },
        {
          "internalType": "string",
          "name": "_symbol",
          "type": "string"
        },
        {
          "internalType": "address",
          "name": "_depositToken",
          "type": "address"
        },
        {
          "internalType": "address",
          "name": "_rewardToken",
          "type": "address"
        },
        {
          "internalType": "address",
          "name": "_escrowPool",
          "type": "address"
        },
        {
          "internalType": "uint256",
          "name": "_escrowPortion",
          "type": "uint256"
        },
        {
          "internalType": "uint256",
          "name": "_escrowDuration",
          "type": "uint256"
        },
        {
          "internalType": "uint256",
          "name": "_maxBonus",
          "type": "uint256"
        },
        {
          "internalType": "uint256",
          "name": "_maxLockDuration",
          "type": "uint256"
        }
      ],
      "stateMutability": "nonpayable",
      "type": "constructor"
    },
    {
      "anonymous": false,
      "inputs": [
        {
          "indexed": true,
          "internalType": "address",
          "name": "owner",
          "type": "address"
        },
        {
          "indexed": true,
          "internalType": "address",
          "name": "spender",
          "type": "address"
        },
        {
          "indexed": false,
          "internalType": "uint256",
          "name": "value",
          "type": "uint256"
        }
      ],
      "name": "Approval",
      "type": "event"
    },
    {
      "anonymous": false,
      "inputs": [
        {
          "indexed": true,
          "internalType": "address",
          "name": "delegator",
          "type": "address"
        },
        {
          "indexed": true,
          "internalType": "address",
          "name": "fromDelegate",
          "type": "address"
        },
        {
          "indexed": true,
          "internalType": "address",
          "name": "toDelegate",
          "type": "address"
        }
      ],
      "name": "DelegateChanged",
      "type": "event"
    },
    {
      "anonymous": false,
      "inputs": [
        {
          "indexed": true,
          "internalType": "address",
          "name": "delegate",
          "type": "address"
        },
        {
          "indexed": false,
          "internalType": "uint256",
          "name": "previousBalance",
          "type": "uint256"
        },
        {
          "indexed": false,
          "internalType": "uint256",
          "name": "newBalance",
          "type": "uint256"
        }
      ],
      "name": "DelegateVotesChanged",
      "type": "event"
    },
    {
      "anonymous": false,
      "inputs": [
        {
          "indexed": false,
          "internalType": "uint256",
          "name": "amount",
          "type": "uint256"
        },
        {
          "indexed": false,
          "internalType": "uint256",
          "name": "duration",
          "type": "uint256"
        },
        {
          "indexed": true,
          "internalType": "address",
          "name": "receiver",
          "type": "address"
        },
        {
          "indexed": true,
          "internalType": "address",
          "name": "from",
          "type": "address"
        }
      ],
      "name": "Deposited",
      "type": "event"
    },
    {
      "anonymous": false,
      "inputs": [
        {
          "indexed": true,
          "internalType": "address",
          "name": "_from",
          "type": "address"
        },
        {
          "indexed": true,
          "internalType": "address",
          "name": "_receiver",
          "type": "address"
        },
        {
          "indexed": false,
          "internalType": "uint256",
          "name": "_escrowedAmount",
          "type": "uint256"
        },
        {
          "indexed": false,
          "internalType": "uint256",
          "name": "_nonEscrowedAmount",
          "type": "uint256"
        }
      ],
      "name": "RewardsClaimed",
      "type": "event"
    },
    {
      "anonymous": false,
      "inputs": [
        {
          "indexed": true,
          "internalType": "address",
          "name": "by",
          "type": "address"
        },
        {
          "indexed": false,
          "internalType": "uint256",
          "name": "rewardsDistributed",
          "type": "uint256"
        }
      ],
      "name": "RewardsDistributed",
      "type": "event"
    },
    {
      "anonymous": false,
      "inputs": [
        {
          "indexed": true,
          "internalType": "address",
          "name": "by",
          "type": "address"
        },
        {
          "indexed": false,
          "internalType": "uint256",
          "name": "fundsWithdrawn",
          "type": "uint256"
        }
      ],
      "name": "RewardsWithdrawn",
      "type": "event"
    },
    {
      "anonymous": false,
      "inputs": [
        {
          "indexed": true,
          "internalType": "bytes32",
          "name": "role",
          "type": "bytes32"
        },
        {
          "indexed": true,
          "internalType": "bytes32",
          "name": "previousAdminRole",
          "type": "bytes32"
        },
        {
          "indexed": true,
          "internalType": "bytes32",
          "name": "newAdminRole",
          "type": "bytes32"
        }
      ],
      "name": "RoleAdminChanged",
      "type": "event"
    },
    {
      "anonymous": false,
      "inputs": [
        {
          "indexed": true,
          "internalType": "bytes32",
          "name": "role",
          "type": "bytes32"
        },
        {
          "indexed": true,
          "internalType": "address",
          "name": "account",
          "type": "address"
        },
        {
          "indexed": true,
          "internalType": "address",
          "name": "sender",
          "type": "address"
        }
      ],
      "name": "RoleGranted",
      "type": "event"
    },
    {
      "anonymous": false,
      "inputs": [
        {
          "indexed": true,
          "internalType": "bytes32",
          "name": "role",
          "type": "bytes32"
        },
        {
          "indexed": true,
          "internalType": "address",
          "name": "account",
          "type": "address"
        },
        {
          "indexed": true,
          "internalType": "address",
          "name": "sender",
          "type": "address"
        }
      ],
      "name": "RoleRevoked",
      "type": "event"
    },
    {
      "anonymous": false,
      "inputs": [
        {
          "indexed": true,
          "internalType": "address",
          "name": "by",
          "type": "address"
        },
        {
          "indexed": true,
          "internalType": "address",
          "name": "receiver",
          "type": "address"
        },
        {
          "indexed": true,
          "internalType": "address",
          "name": "token",
          "type": "address"
        },
        {
          "indexed": false,
          "internalType": "uint256",
          "name": "amount",
          "type": "uint256"
        }
      ],
      "name": "TokenSaved",
      "type": "event"
    },
    {
      "anonymous": false,
      "inputs": [
        {
          "indexed": true,
          "internalType": "address",
          "name": "from",
          "type": "address"
        },
        {
          "indexed": true,
          "internalType": "address",
          "name": "to",
          "type": "address"
        },
        {
          "indexed": false,
          "internalType": "uint256",
          "name": "value",
          "type": "uint256"
        }
      ],
      "name": "Transfer",
      "type": "event"
    },
    {
      "anonymous": false,
      "inputs": [
        {
          "indexed": true,
          "internalType": "uint256",
          "name": "depositId",
          "type": "uint256"
        },
        {
          "indexed": true,
          "internalType": "address",
          "name": "receiver",
          "type": "address"
        },
        {
          "indexed": true,
          "internalType": "address",
          "name": "from",
          "type": "address"
        },
        {
          "indexed": false,
          "internalType": "uint256",
          "name": "amount",
          "type": "uint256"
        }
      ],
      "name": "Withdrawn",
      "type": "event"
    },
    {
      "inputs": [],
      "name": "DEFAULT_ADMIN_ROLE",
      "outputs": [
        {
          "internalType": "bytes32",
          "name": "",
          "type": "bytes32"
        }
      ],
      "stateMutability": "view",
      "type": "function"
    },
    {
      "inputs": [],
      "name": "DOMAIN_SEPARATOR",
      "outputs": [
        {
          "internalType": "bytes32",
          "name": "",
          "type": "bytes32"
        }
      ],
      "stateMutability": "view",
      "type": "function"
    },
    {
      "inputs": [],
      "name": "MIN_LOCK_DURATION",
      "outputs": [
        {
          "internalType": "uint256",
          "name": "",
          "type": "uint256"
        }
      ],
      "stateMutability": "view",
      "type": "function"
    },
    {
      "inputs": [],
      "name": "POINTS_MULTIPLIER",
      "outputs": [
        {
          "internalType": "uint128",
          "name": "",
          "type": "uint128"
        }
      ],
      "stateMutability": "view",
      "type": "function"
    },
    {
      "inputs": [],
      "name": "TOKEN_SAVER_ROLE",
      "outputs": [
        {
          "internalType": "bytes32",
          "name": "",
          "type": "bytes32"
        }
      ],
      "stateMutability": "view",
      "type": "function"
    },
    {
      "inputs": [
        {
          "internalType": "address",
          "name": "owner",
          "type": "address"
        },
        {
          "internalType": "address",
          "name": "spender",
          "type": "address"
        }
      ],
      "name": "allowance",
      "outputs": [
        {
          "internalType": "uint256",
          "name": "",
          "type": "uint256"
        }
      ],
      "stateMutability": "view",
      "type": "function"
    },
    {
      "inputs": [
        {
          "internalType": "address",
          "name": "spender",
          "type": "address"
        },
        {
          "internalType": "uint256",
          "name": "amount",
          "type": "uint256"
        }
      ],
      "name": "approve",
      "outputs": [
        {
          "internalType": "bool",
          "name": "",
          "type": "bool"
        }
      ],
      "stateMutability": "nonpayable",
      "type": "function"
    },
    {
      "inputs": [
        {
          "internalType": "address",
          "name": "account",
          "type": "address"
        }
      ],
      "name": "balanceOf",
      "outputs": [
        {
          "internalType": "uint256",
          "name": "",
          "type": "uint256"
        }
      ],
      "stateMutability": "view",
      "type": "function"
    },
    {
      "inputs": [
        {
          "internalType": "address",
          "name": "account",
          "type": "address"
        },
        {
          "internalType": "uint32",
          "name": "pos",
          "type": "uint32"
        }
      ],
      "name": "checkpoints",
      "outputs": [
        {
          "components": [
            {
              "internalType": "uint32",
              "name": "fromBlock",
              "type": "uint32"
            },
            {
              "internalType": "uint224",
              "name": "votes",
              "type": "uint224"
            }
          ],
          "internalType": "struct ERC20Votes.Checkpoint",
          "name": "",
          "type": "tuple"
        }
      ],
      "stateMutability": "view",
      "type": "function"
    },
    {
      "inputs": [
        {
          "internalType": "address",
          "name": "_receiver",
          "type": "address"
        }
      ],
      "name": "claimRewards",
      "outputs": [],
      "stateMutability": "nonpayable",
      "type": "function"
    },
    {
      "inputs": [
        {
          "internalType": "address",
          "name": "_account",
          "type": "address"
        }
      ],
      "name": "cumulativeRewardsOf",
      "outputs": [
        {
          "internalType": "uint256",
          "name": "",
          "type": "uint256"
        }
      ],
      "stateMutability": "view",
      "type": "function"
    },
    {
      "inputs": [],
      "name": "decimals",
      "outputs": [
        {
          "internalType": "uint8",
          "name": "",
          "type": "uint8"
        }
      ],
      "stateMutability": "view",
      "type": "function"
    },
    {
      "inputs": [
        {
          "internalType": "address",
          "name": "spender",
          "type": "address"
        },
        {
          "internalType": "uint256",
          "name": "subtractedValue",
          "type": "uint256"
        }
      ],
      "name": "decreaseAllowance",
      "outputs": [
        {
          "internalType": "bool",
          "name": "",
          "type": "bool"
        }
      ],
      "stateMutability": "nonpayable",
      "type": "function"
    },
    {
      "inputs": [
        {
          "internalType": "address",
          "name": "delegatee",
          "type": "address"
        }
      ],
      "name": "delegate",
      "outputs": [],
      "stateMutability": "nonpayable",
      "type": "function"
    },
    {
      "inputs": [
        {
          "internalType": "address",
          "name": "delegatee",
          "type": "address"
        },
        {
          "internalType": "uint256",
          "name": "nonce",
          "type": "uint256"
        },
        {
          "internalType": "uint256",
          "name": "expiry",
          "type": "uint256"
        },
        {
          "internalType": "uint8",
          "name": "v",
          "type": "uint8"
        },
        {
          "internalType": "bytes32",
          "name": "r",
          "type": "bytes32"
        },
        {
          "internalType": "bytes32",
          "name": "s",
          "type": "bytes32"
        }
      ],
      "name": "delegateBySig",
      "outputs": [],
      "stateMutability": "nonpayable",
      "type": "function"
    },
    {
      "inputs": [
        {
          "internalType": "address",
          "name": "account",
          "type": "address"
        }
      ],
      "name": "delegates",
      "outputs": [
        {
          "internalType": "address",
          "name": "",
          "type": "address"
        }
      ],
      "stateMutability": "view",
      "type": "function"
    },
    {
      "inputs": [
        {
          "internalType": "uint256",
          "name": "_amount",
          "type": "uint256"
        },
        {
          "internalType": "uint256",
          "name": "_duration",
          "type": "uint256"
        },
        {
          "internalType": "address",
          "name": "_receiver",
          "type": "address"
        }
      ],
      "name": "deposit",
      "outputs": [],
      "stateMutability": "nonpayable",
      "type": "function"
    },
    {
      "inputs": [],
      "name": "depositToken",
      "outputs": [
        {
          "internalType": "contract IERC20",
          "name": "",
          "type": "address"
        }
      ],
      "stateMutability": "view",
      "type": "function"
    },
    {
      "inputs": [
        {
          "internalType": "address",
          "name": "",
          "type": "address"
        },
        {
          "internalType": "uint256",
          "name": "",
          "type": "uint256"
        }
      ],
      "name": "depositsOf",
      "outputs": [
        {
          "internalType": "uint256",
          "name": "amount",
          "type": "uint256"
        },
        {
          "internalType": "uint64",
          "name": "start",
          "type": "uint64"
        },
        {
          "internalType": "uint64",
          "name": "end",
          "type": "uint64"
        }
      ],
      "stateMutability": "view",
      "type": "function"
    },
    {
      "inputs": [
        {
          "internalType": "uint256",
          "name": "_amount",
          "type": "uint256"
        }
      ],
      "name": "distributeRewards",
      "outputs": [],
      "stateMutability": "nonpayable",
      "type": "function"
    },
    {
      "inputs": [],
      "name": "escrowDuration",
      "outputs": [
        {
          "internalType": "uint256",
          "name": "",
          "type": "uint256"
        }
      ],
      "stateMutability": "view",
      "type": "function"
    },
    {
      "inputs": [],
      "name": "escrowPool",
      "outputs": [
        {
          "internalType": "contract ITimeLockPool",
          "name": "",
          "type": "address"
        }
      ],
      "stateMutability": "view",
      "type": "function"
    },
    {
      "inputs": [],
      "name": "escrowPortion",
      "outputs": [
        {
          "internalType": "uint256",
          "name": "",
          "type": "uint256"
        }
      ],
      "stateMutability": "view",
      "type": "function"
    },
    {
      "inputs": [
        {
          "internalType": "address",
          "name": "_account",
          "type": "address"
        }
      ],
      "name": "getDepositsOf",
      "outputs": [
        {
          "components": [
            {
              "internalType": "uint256",
              "name": "amount",
              "type": "uint256"
            },
            {
              "internalType": "uint64",
              "name": "start",
              "type": "uint64"
            },
            {
              "internalType": "uint64",
              "name": "end",
              "type": "uint64"
            }
          ],
          "internalType": "struct TimeLockPool.Deposit[]",
          "name": "",
          "type": "tuple[]"
        }
      ],
      "stateMutability": "view",
      "type": "function"
    },
    {
      "inputs": [
        {
          "internalType": "address",
          "name": "_account",
          "type": "address"
        }
      ],
      "name": "getDepositsOfLength",
      "outputs": [
        {
          "internalType": "uint256",
          "name": "",
          "type": "uint256"
        }
      ],
      "stateMutability": "view",
      "type": "function"
    },
    {
      "inputs": [
        {
          "internalType": "uint256",
          "name": "_lockDuration",
          "type": "uint256"
        }
      ],
      "name": "getMultiplier",
      "outputs": [
        {
          "internalType": "uint256",
          "name": "",
          "type": "uint256"
        }
      ],
      "stateMutability": "view",
      "type": "function"
    },
    {
      "inputs": [
        {
          "internalType": "uint256",
          "name": "blockNumber",
          "type": "uint256"
        }
      ],
      "name": "getPastTotalSupply",
      "outputs": [
        {
          "internalType": "uint256",
          "name": "",
          "type": "uint256"
        }
      ],
      "stateMutability": "view",
      "type": "function"
    },
    {
      "inputs": [
        {
          "internalType": "address",
          "name": "account",
          "type": "address"
        },
        {
          "internalType": "uint256",
          "name": "blockNumber",
          "type": "uint256"
        }
      ],
      "name": "getPastVotes",
      "outputs": [
        {
          "internalType": "uint256",
          "name": "",
          "type": "uint256"
        }
      ],
      "stateMutability": "view",
      "type": "function"
    },
    {
      "inputs": [
        {
          "internalType": "bytes32",
          "name": "role",
          "type": "bytes32"
        }
      ],
      "name": "getRoleAdmin",
      "outputs": [
        {
          "internalType": "bytes32",
          "name": "",
          "type": "bytes32"
        }
      ],
      "stateMutability": "view",
      "type": "function"
    },
    {
      "inputs": [
        {
          "internalType": "bytes32",
          "name": "role",
          "type": "bytes32"
        },
        {
          "internalType": "uint256",
          "name": "index",
          "type": "uint256"
        }
      ],
      "name": "getRoleMember",
      "outputs": [
        {
          "internalType": "address",
          "name": "",
          "type": "address"
        }
      ],
      "stateMutability": "view",
      "type": "function"
    },
    {
      "inputs": [
        {
          "internalType": "bytes32",
          "name": "role",
          "type": "bytes32"
        }
      ],
      "name": "getRoleMemberCount",
      "outputs": [
        {
          "internalType": "uint256",
          "name": "",
          "type": "uint256"
        }
      ],
      "stateMutability": "view",
      "type": "function"
    },
    {
      "inputs": [
        {
          "internalType": "address",
          "name": "_account",
          "type": "address"
        }
      ],
      "name": "getTotalDeposit",
      "outputs": [
        {
          "internalType": "uint256",
          "name": "",
          "type": "uint256"
        }
      ],
      "stateMutability": "view",
      "type": "function"
    },
    {
      "inputs": [
        {
          "internalType": "address",
          "name": "account",
          "type": "address"
        }
      ],
      "name": "getVotes",
      "outputs": [
        {
          "internalType": "uint256",
          "name": "",
          "type": "uint256"
        }
      ],
      "stateMutability": "view",
      "type": "function"
    },
    {
      "inputs": [
        {
          "internalType": "bytes32",
          "name": "role",
          "type": "bytes32"
        },
        {
          "internalType": "address",
          "name": "account",
          "type": "address"
        }
      ],
      "name": "grantRole",
      "outputs": [],
      "stateMutability": "nonpayable",
      "type": "function"
    },
    {
      "inputs": [
        {
          "internalType": "bytes32",
          "name": "role",
          "type": "bytes32"
        },
        {
          "internalType": "address",
          "name": "account",
          "type": "address"
        }
      ],
      "name": "hasRole",
      "outputs": [
        {
          "internalType": "bool",
          "name": "",
          "type": "bool"
        }
      ],
      "stateMutability": "view",
      "type": "function"
    },
    {
      "inputs": [
        {
          "internalType": "address",
          "name": "spender",
          "type": "address"
        },
        {
          "internalType": "uint256",
          "name": "addedValue",
          "type": "uint256"
        }
      ],
      "name": "increaseAllowance",
      "outputs": [
        {
          "internalType": "bool",
          "name": "",
          "type": "bool"
        }
      ],
      "stateMutability": "nonpayable",
      "type": "function"
    },
    {
      "inputs": [],
      "name": "maxBonus",
      "outputs": [
        {
          "internalType": "uint256",
          "name": "",
          "type": "uint256"
        }
      ],
      "stateMutability": "view",
      "type": "function"
    },
    {
      "inputs": [],
      "name": "maxLockDuration",
      "outputs": [
        {
          "internalType": "uint256",
          "name": "",
          "type": "uint256"
        }
      ],
      "stateMutability": "view",
      "type": "function"
    },
    {
      "inputs": [],
      "name": "name",
      "outputs": [
        {
          "internalType": "string",
          "name": "",
          "type": "string"
        }
      ],
      "stateMutability": "view",
      "type": "function"
    },
    {
      "inputs": [
        {
          "internalType": "address",
          "name": "owner",
          "type": "address"
        }
      ],
      "name": "nonces",
      "outputs": [
        {
          "internalType": "uint256",
          "name": "",
          "type": "uint256"
        }
      ],
      "stateMutability": "view",
      "type": "function"
    },
    {
      "inputs": [
        {
          "internalType": "address",
          "name": "account",
          "type": "address"
        }
      ],
      "name": "numCheckpoints",
      "outputs": [
        {
          "internalType": "uint32",
          "name": "",
          "type": "uint32"
        }
      ],
      "stateMutability": "view",
      "type": "function"
    },
    {
      "inputs": [
        {
          "internalType": "address",
          "name": "owner",
          "type": "address"
        },
        {
          "internalType": "address",
          "name": "spender",
          "type": "address"
        },
        {
          "internalType": "uint256",
          "name": "value",
          "type": "uint256"
        },
        {
          "internalType": "uint256",
          "name": "deadline",
          "type": "uint256"
        },
        {
          "internalType": "uint8",
          "name": "v",
          "type": "uint8"
        },
        {
          "internalType": "bytes32",
          "name": "r",
          "type": "bytes32"
        },
        {
          "internalType": "bytes32",
          "name": "s",
          "type": "bytes32"
        }
      ],
      "name": "permit",
      "outputs": [],
      "stateMutability": "nonpayable",
      "type": "function"
    },
    {
      "inputs": [
        {
          "internalType": "address",
          "name": "",
          "type": "address"
        }
      ],
      "name": "pointsCorrection",
      "outputs": [
        {
          "internalType": "int256",
          "name": "",
          "type": "int256"
        }
      ],
      "stateMutability": "view",
      "type": "function"
    },
    {
      "inputs": [],
      "name": "pointsPerShare",
      "outputs": [
        {
          "internalType": "uint256",
          "name": "",
          "type": "uint256"
        }
      ],
      "stateMutability": "view",
      "type": "function"
    },
    {
      "inputs": [
        {
          "internalType": "bytes32",
          "name": "role",
          "type": "bytes32"
        },
        {
          "internalType": "address",
          "name": "account",
          "type": "address"
        }
      ],
      "name": "renounceRole",
      "outputs": [],
      "stateMutability": "nonpayable",
      "type": "function"
    },
    {
      "inputs": [
        {
          "internalType": "bytes32",
          "name": "role",
          "type": "bytes32"
        },
        {
          "internalType": "address",
          "name": "account",
          "type": "address"
        }
      ],
      "name": "revokeRole",
      "outputs": [],
      "stateMutability": "nonpayable",
      "type": "function"
    },
    {
      "inputs": [],
      "name": "rewardToken",
      "outputs": [
        {
          "internalType": "contract IERC20",
          "name": "",
          "type": "address"
        }
      ],
      "stateMutability": "view",
      "type": "function"
    },
    {
      "inputs": [
        {
          "internalType": "address",
          "name": "_token",
          "type": "address"
        },
        {
          "internalType": "address",
          "name": "_receiver",
          "type": "address"
        },
        {
          "internalType": "uint256",
          "name": "_amount",
          "type": "uint256"
        }
      ],
      "name": "saveToken",
      "outputs": [],
      "stateMutability": "nonpayable",
      "type": "function"
    },
    {
      "inputs": [
        {
          "internalType": "bytes4",
          "name": "interfaceId",
          "type": "bytes4"
        }
      ],
      "name": "supportsInterface",
      "outputs": [
        {
          "internalType": "bool",
          "name": "",
          "type": "bool"
        }
      ],
      "stateMutability": "view",
      "type": "function"
    },
    {
      "inputs": [],
      "name": "symbol",
      "outputs": [
        {
          "internalType": "string",
          "name": "",
          "type": "string"
        }
      ],
      "stateMutability": "view",
      "type": "function"
    },
    {
      "inputs": [],
      "name": "totalSupply",
      "outputs": [
        {
          "internalType": "uint256",
          "name": "",
          "type": "uint256"
        }
      ],
      "stateMutability": "view",
      "type": "function"
    },
    {
      "inputs": [
        {
          "internalType": "address",
          "name": "recipient",
          "type": "address"
        },
        {
          "internalType": "uint256",
          "name": "amount",
          "type": "uint256"
        }
      ],
      "name": "transfer",
      "outputs": [
        {
          "internalType": "bool",
          "name": "",
          "type": "bool"
        }
      ],
      "stateMutability": "nonpayable",
      "type": "function"
    },
    {
      "inputs": [
        {
          "internalType": "address",
          "name": "sender",
          "type": "address"
        },
        {
          "internalType": "address",
          "name": "recipient",
          "type": "address"
        },
        {
          "internalType": "uint256",
          "name": "amount",
          "type": "uint256"
        }
      ],
      "name": "transferFrom",
      "outputs": [
        {
          "internalType": "bool",
          "name": "",
          "type": "bool"
        }
      ],
      "stateMutability": "nonpayable",
      "type": "function"
    },
    {
      "inputs": [
        {
          "internalType": "uint256",
          "name": "_depositId",
          "type": "uint256"
        },
        {
          "internalType": "address",
          "name": "_receiver",
          "type": "address"
        }
      ],
      "name": "withdraw",
      "outputs": [],
      "stateMutability": "nonpayable",
      "type": "function"
    },
    {
      "inputs": [
        {
          "internalType": "address",
          "name": "_account",
          "type": "address"
        }
      ],
      "name": "withdrawableRewardsOf",
      "outputs": [
        {
          "internalType": "uint256",
          "name": "",
          "type": "uint256"
        }
      ],
      "stateMutability": "view",
      "type": "function"
    },
    {
      "inputs": [
        {
          "internalType": "address",
          "name": "",
          "type": "address"
        }
      ],
      "name": "withdrawnRewards",
      "outputs": [
        {
          "internalType": "uint256",
          "name": "",
          "type": "uint256"
        }
      ],
      "stateMutability": "view",
      "type": "function"
    },
    {
      "inputs": [
        {
          "internalType": "address",
          "name": "_account",
          "type": "address"
        }
      ],
      "name": "withdrawnRewardsOf",
      "outputs": [
        {
          "internalType": "uint256",
          "name": "",
          "type": "uint256"
        }
      ],
      "stateMutability": "view",
      "type": "function"
    }
  ],
  "transactionHash": "0x9ab1631bc861cace15bf22525b8917892200bfaf03106108342c35278e00bf45",
  "args": [
    "Staked FLX-USDC UniswapV2 LP",
    "SFLXUSDC",
    "0xd6Ef070951d008f1e6426ad9ca1C4FcF7220eE4D",
    "0x3ea8ea4237344c9931214796d9417af1a1180770",
    "0x0000000000000000000000000000000000000000",
    0,
    0,
    1,
    31536000
  ],
  "solcInputHash": "f8daef160e08564be5dee2c9bf7e2f8b",
  "bytecode": "0x6102606040527f6e71edae12b1b97f4d1f60370fef10105fa2faae0126114a169c64845d6126c9610120523480156200003757600080fd5b5060405162004c8438038062004c848339810160408190526200005a9162000a9f565b888888888888888888888888888888886200039160201b620005ec17620003ac60201b62000e77178880604051806040016040528060018152602001603160f81b8152508b8b8160039080519060200190620000b892919062000927565b508051620000ce90600490602084019062000927565b5050825160208085019190912083519184019190912060c082905260e08190524660a0529091507f8b73c3c69bb8fe3d512ecc4cf759cc79239f7b179b0ffacaa9a75d522b39400f62000123818484620003b2565b60805261010052505050505060c091821b6001600160c01b031990811661014052911b16610160526200015f6000620001593390565b620003fc565b670de0b6b3a7640000821115620001d85760405162461bcd60e51b815260206004820152603260248201527f42617365506f6f6c2e636f6e7374727563746f723a2043616e6e6f7420657363604482015271726f77206d6f7265207468616e203130302560701b60648201526084015b60405180910390fd5b6001600160a01b038516620002485760405162461bcd60e51b815260206004820152602f60248201527f42617365506f6f6c2e636f6e7374727563746f723a204465706f73697420746f60448201526e1ad95b881b5d5cdd081899481cd95d608a1b6064820152608401620001cf565b6001600160601b0319606086811b82166101805285811b82166101a05284901b166101c0526101e08290526102008190526001600160a01b038416158015906200029a57506001600160a01b03831615155b15620002c757620002c783600019866001600160a01b03166200043f60201b62001cda179092919060201c565b50505050505050620151808110156200036f5760405162461bcd60e51b815260206004820152605e60248201527f54696d654c6f636b506f6f6c2e636f6e7374727563746f723a206d6178206c6f60448201527f636b206475726174696f6e206d7573742062652067726561746572206f72206560648201527f7175616c20746f206d696e696e6d756d206c6f636b206475726174696f6e0000608482015260a401620001cf565b61022091909152610240525062000c5b9e505050505050505050505050505050565b6001600160a01b031660009081526020819052604090205490565b60025490565b6040805160208101859052908101839052606081018290524660808201523060a082015260009060c0016040516020818303038152906040528051906020012090505b9392505050565b6200041382826200059960201b62001e381760201c565b6000828152600d602090815260409091206200043a91839062001e46620005a9821b17901c565b505050565b801580620004cd5750604051636eb1769f60e11b81523060048201526001600160a01b03838116602483015284169063dd62ed3e9060440160206040518083038186803b1580156200049057600080fd5b505afa158015620004a5573d6000803e3d6000fd5b505050506040513d601f19601f82011682018060405250810190620004cb919062000b68565b155b620005415760405162461bcd60e51b815260206004820152603660248201527f5361666545524332303a20617070726f76652066726f6d206e6f6e2d7a65726f60448201527f20746f206e6f6e2d7a65726f20616c6c6f77616e6365000000000000000000006064820152608401620001cf565b604080516001600160a01b038416602482015260448082018490528251808303909101815260649091019091526020810180516001600160e01b0390811663095ea7b360e01b179091526200043a918591620005c916565b620005a58282620006a7565b5050565b6000620005c0836001600160a01b0384166200074b565b90505b92915050565b600062000625826040518060400160405280602081526020017f5361666545524332303a206c6f772d6c6576656c2063616c6c206661696c6564815250856001600160a01b03166200079d60201b62001e5b179092919060201c565b8051909150156200043a578080602001905181019062000646919062000a7b565b6200043a5760405162461bcd60e51b815260206004820152602a60248201527f5361666545524332303a204552433230206f7065726174696f6e20646964206e6044820152691bdd081cdd58d8d9595960b21b6064820152608401620001cf565b6000828152600c602090815260408083206001600160a01b038516845290915290205460ff16620005a5576000828152600c602090815260408083206001600160a01b03851684529091529020805460ff19166001179055620007073390565b6001600160a01b0316816001600160a01b0316837f2f8788117e7eff1d82e926ec794901d17c78024a50270940304540a733656f0d60405160405180910390a45050565b60008181526001830160205260408120546200079457508154600181810184556000848152602080822090930184905584548482528286019093526040902091909155620005c3565b506000620005c3565b6060620007ae8484600085620007b6565b949350505050565b606082471015620008195760405162461bcd60e51b815260206004820152602660248201527f416464726573733a20696e73756666696369656e742062616c616e636520666f6044820152651c8818d85b1b60d21b6064820152608401620001cf565b843b620008695760405162461bcd60e51b815260206004820152601d60248201527f416464726573733a2063616c6c20746f206e6f6e2d636f6e74726163740000006044820152606401620001cf565b600080866001600160a01b0316858760405162000887919062000b82565b60006040518083038185875af1925050503d8060008114620008c6576040519150601f19603f3d011682016040523d82523d6000602084013e620008cb565b606091505b509092509050620008de828286620008e9565b979650505050505050565b60608315620008fa575081620003f5565b8251156200090b5782518084602001fd5b8160405162461bcd60e51b8152600401620001cf919062000ba0565b828054620009359062000c08565b90600052602060002090601f016020900481019282620009595760008555620009a4565b82601f106200097457805160ff1916838001178555620009a4565b82800160010185558215620009a4579182015b82811115620009a457825182559160200191906001019062000987565b50620009b2929150620009b6565b5090565b5b80821115620009b25760008155600101620009b7565b80516001600160a01b0381168114620009e557600080fd5b919050565b600082601f830112620009fc57600080fd5b81516001600160401b038082111562000a195762000a1962000c45565b604051601f8301601f19908116603f0116810190828211818310171562000a445762000a4462000c45565b8160405283815286602085880101111562000a5e57600080fd5b62000a7184602083016020890162000bd5565b9695505050505050565b60006020828403121562000a8e57600080fd5b81518015158114620003f557600080fd5b60008060008060008060008060006101208a8c03121562000abf57600080fd5b89516001600160401b038082111562000ad757600080fd5b62000ae58d838e01620009ea565b9a5060208c015191508082111562000afc57600080fd5b5062000b0b8c828d01620009ea565b98505062000b1c60408b01620009cd565b965062000b2c60608b01620009cd565b955062000b3c60808b01620009cd565b945060a08a0151935060c08a0151925060e08a015191506101008a015190509295985092959850929598565b60006020828403121562000b7b57600080fd5b5051919050565b6000825162000b9681846020870162000bd5565b9190910192915050565b602081526000825180602084015262000bc181604085016020870162000bd5565b601f01601f19169190910160400192915050565b60005b8381101562000bf257818101518382015260200162000bd8565b8381111562000c02576000848401525b50505050565b600181811c9082168062000c1d57607f821691505b6020821081141562000c3f57634e487b7160e01b600052602260045260246000fd5b50919050565b634e487b7160e01b600052604160045260246000fd5b60805160a05160c05160e05161010051610120516101405160c01c6101605160c01c6101805160601c6101a05160601c6101c05160601c6101e051610200516102205161024051613f1a62000d6a60003960008181610777015281816112a0015261171b0152600081816104dc01526117400152600081816105030152611b3a0152600081816108ae0152611aa901526000818161059401528181611af40152611b700152600081816109a40152818161104a0152611be301526000818161087401528181610ca801526112da015260006123ec01526000610e2a01526000611972015260006121b0015260006121ff015260006121da0152600061215e015260006121870152613f1a6000f3fe608060405234801561001057600080fd5b50600436106103825760003560e01c8063804d9426116101de578063adf8252d1161010f578063d1f52983116100ad578063dd6624e41161007c578063dd6624e41461092f578063ef5cfb8c1461094f578063f1127ed814610962578063f7c618c11461099f57600080fd5b8063d1f52983146108a9578063d505accf146108d0578063d547741f146108e3578063dd62ed3e146108f657600080fd5b8063b8162dd2116100e9578063b8162dd214610833578063c3cda5201461085c578063c89039c51461086f578063ca15c8731461089657600080fd5b8063adf8252d146107c7578063ae22192e146107da578063b182eb911461081357600080fd5b806395d89b411161017c578063a16cdbb111610156578063a16cdbb114610772578063a217fddf14610799578063a457c2d7146107a1578063a9059cbb146107b457600080fd5b806395d89b41146107445780639ab24eb01461074c5780639afdb2c21461075f57600080fd5b80638e539e8c116101b85780638e539e8c146106ad5780638f2203f6146106c05780639010d07c146106f857806391d148541461070b57600080fd5b8063804d942614610667578063857184d1146106875780638dbdbe6d1461069a57600080fd5b80633a46b1a8116102b85780636fcfff451161025657806378b4330f1161023057806378b4330f1461062e5780637cd0b5c7146106385780637e245d791461064b5780637ecebe001461065457600080fd5b80636fcfff45146105b657806370a08231146105de57806376175b061461060757600080fd5b8063587cde1e11610292578063587cde1e1461052557806359974e38146105695780635c19a95c1461057c57806368570e6a1461058f57600080fd5b80633a46b1a8146104c457806354c5b696146104d757806357c2c2ba146104fe57600080fd5b806323b872dd11610325578063313ce567116102ff578063313ce567146104875780633644e5151461049657806336568abe1461049e57806339509351146104b157600080fd5b806323b872dd1461043e578063248a9ca3146104515780632f2ff15d1461047457600080fd5b8063095ea7b311610361578063095ea7b3146103d957806310accecc146103ec57806318160ddd1461040d57806318f9e2911461041557600080fd5b8062f714ce1461038757806301ffc9a71461039c57806306fdde03146103c4575b600080fd5b61039a610395366004613a6f565b6109c6565b005b6103af6103aa366004613ab4565b610d1a565b60405190151581526020015b60405180910390f35b6103cc610d45565b6040516103bb9190613c30565b6103af6103e7366004613972565b610dd7565b6103ff6103fa36600461387e565b610ded565b6040519081526020016103bb565b6002546103ff565b6103ff61042336600461387e565b6001600160a01b03166000908152600b602052604090205490565b6103af61044c3660046138cc565b610e7d565b6103ff61045f366004613a56565b6000908152600c602052604090206001015490565b61039a610482366004613a6f565b610f3e565b604051601281526020016103bb565b6103ff610f65565b61039a6104ac366004613a6f565b610f74565b6103af6104bf366004613972565b610f96565b6103ff6104d2366004613972565b610fd2565b6103ff7f000000000000000000000000000000000000000000000000000000000000000081565b6103ff7f000000000000000000000000000000000000000000000000000000000000000081565b61055161053336600461387e565b6001600160a01b039081166000908152600660205260409020541690565b6040516001600160a01b0390911681526020016103bb565b61039a610577366004613a56565b611045565b61039a61058a36600461387e565b611086565b6105517f000000000000000000000000000000000000000000000000000000000000000081565b6105c96105c436600461387e565b611090565b60405163ffffffff90911681526020016103bb565b6103ff6105ec36600461387e565b6001600160a01b031660009081526020819052604090205490565b6103ff7fd9d917c4034cff8a8c5fa1e40f9fbaf906b827c33ae3ab1fcabbb616cb8ef24d81565b6103ff6201518081565b6103ff61064636600461387e565b6110b2565b6103ff60095481565b6103ff61066236600461387e565b6110de565b61067a61067536600461387e565b6110fc565b6040516103bb9190613bc9565b6103ff61069536600461387e565b61119a565b61039a6106a8366004613af7565b611222565b6103ff6106bb366004613a56565b61143d565b6106d76fffffffffffffffffffffffffffffffff81565b6040516fffffffffffffffffffffffffffffffff90911681526020016103bb565b610551610706366004613a92565b611499565b6103af610719366004613a6f565b6000918252600c602090815260408084206001600160a01b0393909316845291905290205460ff1690565b6103cc6114b1565b6103ff61075a36600461387e565b6114c0565b61039a61076d3660046138cc565b611547565b6103ff7f000000000000000000000000000000000000000000000000000000000000000081565b6103ff600081565b6103af6107af366004613972565b611659565b6103af6107c2366004613972565b61170a565b6103ff6107d5366004613a56565b611717565b6107ed6107e8366004613972565b611780565b6040805193845267ffffffffffffffff92831660208501529116908201526060016103bb565b6103ff61082136600461387e565b600a6020526000908152604090205481565b6103ff61084136600461387e565b6001600160a01b03166000908152600e602052604090205490565b61039a61086a36600461399c565b6117d1565b6105517f000000000000000000000000000000000000000000000000000000000000000081565b6103ff6108a4366004613a56565b611907565b6103ff7f000000000000000000000000000000000000000000000000000000000000000081565b61039a6108de366004613908565b61191e565b61039a6108f1366004613a6f565b611a82565b6103ff610904366004613899565b6001600160a01b03918216600090815260016020908152604080832093909416825291909152205490565b6103ff61093d36600461387e565b600b6020526000908152604090205481565b61039a61095d36600461387e565b611a8c565b6109756109703660046139f4565b611c56565b60408051825163ffffffff1681526020928301516001600160e01b031692810192909252016103bb565b6105517f000000000000000000000000000000000000000000000000000000000000000081565b336000908152600e60205260409020548210610a4f5760405162461bcd60e51b815260206004820152602d60248201527f54696d654c6f636b506f6f6c2e77697468647261773a204465706f736974206460448201527f6f6573206e6f742065786973740000000000000000000000000000000000000060648201526084015b60405180910390fd5b336000908152600e60205260408120805484908110610a7057610a70613ee1565b6000918252602091829020604080516060810182526002909302909101805483526001015467ffffffffffffffff80821694840194909452600160401b90049092169181018290529150421015610b095760405162461bcd60e51b815260206004820152601f60248201527f54696d654c6f636b506f6f6c2e77697468647261773a20746f6f20736f6f6e006044820152606401610a46565b6000670de0b6b3a7640000610b3a83602001518460400151610b2b9190613dc6565b67ffffffffffffffff16611717565b8351610b469190613d90565b610b509190613ce7565b336000908152600e60205260409020805491925090610b7190600190613daf565b81548110610b8157610b81613ee1565b9060005260206000209060020201600e6000610b9a3390565b6001600160a01b03166001600160a01b031681526020019081526020016000208581548110610bcb57610bcb613ee1565b600091825260208083208454600293909302019182556001938401805494909201805467ffffffffffffffff95861667ffffffffffffffff1982168117835593546fffffffffffffffffffffffffffffffff19909116909317600160401b93849004909516909202939093179055338152600e90915260409020805480610c5457610c54613ecb565b60008281526020812060026000199093019283020190815560010180546fffffffffffffffffffffffffffffffff191690559055610c98610c923390565b82611e72565b8151610cd0906001600160a01b037f000000000000000000000000000000000000000000000000000000000000000016908590611e8e565b815160405190815233906001600160a01b0385169086907fe5df19de43c8c04fd192bc68e484b2593570925fbb6ad8c07ccafbc2aa5c37a19060200160405180910390a450505050565b60006001600160e01b03198216635a05180f60e01b1480610d3f5750610d3f82611ebe565b92915050565b606060038054610d5490613e32565b80601f0160208091040260200160405190810160405280929190818152602001828054610d8090613e32565b8015610dcd5780601f10610da257610100808354040283529160200191610dcd565b820191906000526020600020905b815481529060010190602001808311610db057829003601f168201915b5050505050905090565b6000610de4338484611ef3565b50600192915050565b6001600160a01b0381166000908152600a60205260408120546fffffffffffffffffffffffffffffffff90610e6d90610e5e610e4c8663ffffffff7f000000000000000000000000000000000000000000000000000000000000000016565b600954610e599190613d90565b612017565b610e689190613c63565b61209a565b610d3f9190613ce7565b60025490565b6000610e8a8484846120ec565b6001600160a01b038416600090815260016020908152604080832033845290915290205482811015610f245760405162461bcd60e51b815260206004820152602860248201527f45524332303a207472616e7366657220616d6f756e742065786365656473206160448201527f6c6c6f77616e63650000000000000000000000000000000000000000000000006064820152608401610a46565b610f318533858403611ef3565b60019150505b9392505050565b610f488282612134565b6000828152600d60205260409020610f609082611e46565b505050565b6000610f6f61215a565b905090565b610f7e828261224d565b6000828152600d60205260409020610f6090826122d5565b3360008181526001602090815260408083206001600160a01b03871684529091528120549091610de4918590610fcd908690613ca3565b611ef3565b60004382106110235760405162461bcd60e51b815260206004820152601f60248201527f4552433230566f7465733a20626c6f636b206e6f7420796574206d696e6564006044820152606401610a46565b6001600160a01b0383166000908152600760205260409020610f3790836122ea565b61107a7f00000000000000000000000000000000000000000000000000000000000000006001600160a01b03163330846123a7565b611083816123e5565b50565b61108333826124ff565b6001600160a01b038116600090815260076020526040812054610d3f90612590565b6001600160a01b0381166000908152600b60205260408120546110d483610ded565b610d3f9190613daf565b6001600160a01b038116600090815260056020526040812054610d3f565b6001600160a01b0381166000908152600e60209081526040808320805482518185028101850190935280835260609492939192909184015b8282101561118f57600084815260209081902060408051606081018252600286029092018054835260019081015467ffffffffffffffff80821685870152600160401b90910416918301919091529083529092019101611134565b505050509050919050565b60008060005b6001600160a01b0384166000908152600e602052604090205481101561121b576001600160a01b0384166000908152600e602052604090208054829081106111ea576111ea613ee1565b906000526020600020906002020160000154826112079190613ca3565b91508061121381613e67565b9150506111a0565b5092915050565b600083116112985760405162461bcd60e51b815260206004820152602660248201527f54696d654c6f636b506f6f6c2e6465706f7369743a2063616e6e6f742064657060448201527f6f736974203000000000000000000000000000000000000000000000000000006064820152608401610a46565b60006112c4837f000000000000000000000000000000000000000000000000000000000000000061260c565b90506112d38162015180612622565b905061130a7f00000000000000000000000000000000000000000000000000000000000000006001600160a01b03163330876123a7565b600e6000836001600160a01b03166001600160a01b0316815260200190815260200160002060405180606001604052808681526020014267ffffffffffffffff168152602001834261135c9190613cbb565b67ffffffffffffffff908116909152825460018181018555600094855260208086208551600290940201928355840151910180546040909401518316600160401b026fffffffffffffffffffffffffffffffff199094169190921617919091179055670de0b6b3a76400006113d083611717565b6113da9087613d90565b6113e49190613ce7565b90506113f08382612632565b604080518681526020810184905233916001600160a01b038616917f34194be2f096bdb2ad418add902a4da76d3d6f6d387d86d857f56c7711ecca70910160405180910390a35050505050565b600043821061148e5760405162461bcd60e51b815260206004820152601f60248201527f4552433230566f7465733a20626c6f636b206e6f7420796574206d696e6564006044820152606401610a46565b610d3f6008836122ea565b6000828152600d60205260408120610f379083612652565b606060048054610d5490613e32565b6001600160a01b0381166000908152600760205260408120548015611534576001600160a01b0383166000908152600760205260409020611502600183613daf565b8154811061151257611512613ee1565b60009182526020909120015464010000000090046001600160e01b0316611537565b60005b6001600160e01b03169392505050565b6115717fd9d917c4034cff8a8c5fa1e40f9fbaf906b827c33ae3ab1fcabbb616cb8ef24d33610719565b6115e35760405162461bcd60e51b815260206004820152602c60248201527f546f6b656e53617665722e6f6e6c79546f6b656e53617665723a207065726d6960448201527f7373696f6e2064656e69656400000000000000000000000000000000000000006064820152608401610a46565b6115f76001600160a01b0384168383611e8e565b826001600160a01b0316826001600160a01b03166116123390565b6001600160a01b03167f30d87cec6b4c56cede1018725d1e6d9304e2f7ee6d25b004b7e2183f793f26bc8460405161164c91815260200190565b60405180910390a4505050565b3360009081526001602090815260408083206001600160a01b0386168452909152812054828110156116f35760405162461bcd60e51b815260206004820152602560248201527f45524332303a2064656372656173656420616c6c6f77616e63652062656c6f7760448201527f207a65726f0000000000000000000000000000000000000000000000000000006064820152608401610a46565b6117003385858403611ef3565b5060019392505050565b6000610de43384846120ec565b60007f0000000000000000000000000000000000000000000000000000000000000000611764837f0000000000000000000000000000000000000000000000000000000000000000613d90565b61176e9190613ce7565b610d3f90670de0b6b3a7640000613ca3565b600e602052816000526040600020818154811061179c57600080fd5b60009182526020909120600290910201805460019091015490925067ffffffffffffffff8082169250600160401b9091041683565b834211156118215760405162461bcd60e51b815260206004820152601d60248201527f4552433230566f7465733a207369676e617475726520657870697265640000006044820152606401610a46565b604080517fe48329057bfd03d55e49b547132e39cffd9c1820ad7b9d4c5307691425d15adf60208201526001600160a01b03881691810191909152606081018690526080810185905260009061189b906118939060a0016040516020818303038152906040528051906020012061265e565b8585856126ac565b90506118a6816126d4565b86146118f45760405162461bcd60e51b815260206004820152601960248201527f4552433230566f7465733a20696e76616c6964206e6f6e6365000000000000006044820152606401610a46565b6118fe81886124ff565b50505050505050565b6000818152600d60205260408120610d3f906126fc565b8342111561196e5760405162461bcd60e51b815260206004820152601d60248201527f45524332305065726d69743a206578706972656420646561646c696e650000006044820152606401610a46565b60007f000000000000000000000000000000000000000000000000000000000000000088888861199d8c6126d4565b6040805160208101969096526001600160a01b0394851690860152929091166060840152608083015260a082015260c0810186905260e00160405160208183030381529060405280519060200120905060006119f88261265e565b90506000611a08828787876126ac565b9050896001600160a01b0316816001600160a01b031614611a6b5760405162461bcd60e51b815260206004820152601e60248201527f45524332305065726d69743a20696e76616c6964207369676e617475726500006044820152606401610a46565b611a768a8a8a611ef3565b50505050505050505050565b610f7e8282612706565b6000611a973361272c565b90506000670de0b6b3a7640000611ace7f000000000000000000000000000000000000000000000000000000000000000084613d90565b611ad89190613ce7565b90506000611ae68284613daf565b90508115801590611b1f57507f00000000000000000000000000000000000000000000000000000000000000006001600160a01b031615155b15611bcd57604051638dbdbe6d60e01b8152600481018390527f000000000000000000000000000000000000000000000000000000000000000060248201526001600160a01b0385811660448301527f00000000000000000000000000000000000000000000000000000000000000001690638dbdbe6d90606401600060405180830381600087803b158015611bb457600080fd5b505af1158015611bc8573d6000803e3d6000fd5b505050505b6001811115611c0a57611c0a6001600160a01b037f0000000000000000000000000000000000000000000000000000000000000000168583611e8e565b60408051838152602081018390526001600160a01b0386169133917fd92c424393cb3ccdf7d5e36602e3bfa34f24490579ba47978f4bcfad496995f2910160405180910390a350505050565b60408051808201909152600080825260208201526001600160a01b0383166000908152600760205260409020805463ffffffff8416908110611c9a57611c9a613ee1565b60009182526020918290206040805180820190915291015463ffffffff8116825264010000000090046001600160e01b0316918101919091529392505050565b801580611d635750604051636eb1769f60e11b81523060048201526001600160a01b03838116602483015284169063dd62ed3e9060440160206040518083038186803b158015611d2957600080fd5b505afa158015611d3d573d6000803e3d6000fd5b505050506040513d601f19601f82011682018060405250810190611d619190613ade565b155b611dd55760405162461bcd60e51b815260206004820152603660248201527f5361666545524332303a20617070726f76652066726f6d206e6f6e2d7a65726f60448201527f20746f206e6f6e2d7a65726f20616c6c6f77616e6365000000000000000000006064820152608401610a46565b6040516001600160a01b038316602482015260448101829052610f6090849063095ea7b360e01b906064015b60408051601f198184030181529190526020810180516001600160e01b03166001600160e01b0319909316929092179091526127c1565b611e4282826128a6565b5050565b6000610f37836001600160a01b038416612948565b6060611e6a8484600085612997565b949350505050565b611e7c8282612ad6565b611e4282611e8983612017565b612aee565b6040516001600160a01b038316602482015260448101829052610f6090849063a9059cbb60e01b90606401611e01565b60006001600160e01b03198216637965db0b60e01b1480610d3f57506301ffc9a760e01b6001600160e01b0319831614610d3f565b6001600160a01b038316611f555760405162461bcd60e51b8152602060048201526024808201527f45524332303a20617070726f76652066726f6d20746865207a65726f206164646044820152637265737360e01b6064820152608401610a46565b6001600160a01b038216611fb65760405162461bcd60e51b815260206004820152602260248201527f45524332303a20617070726f766520746f20746865207a65726f206164647265604482015261737360f01b6064820152608401610a46565b6001600160a01b0383811660008181526001602090815260408083209487168084529482529182902085905590518481527f8c5be1e5ebec7d5bd14f71427d1e84f3dd0314c0f7b2291e5b200ac8c7c3b925910160405180910390a3505050565b60006001600160ff1b038211156120965760405162461bcd60e51b815260206004820152602860248201527f53616665436173743a2076616c756520646f65736e27742066697420696e206160448201527f6e20696e743235360000000000000000000000000000000000000000000000006064820152608401610a46565b5090565b6000808212156120965760405162461bcd60e51b815260206004820181905260248201527f53616665436173743a2076616c7565206d75737420626520706f7369746976656044820152606401610a46565b60405162461bcd60e51b815260206004820152601060248201527f4e4f4e5f5452414e5346455241424c45000000000000000000000000000000006044820152606401610a46565b6000828152600c60205260409020600101546121508133612b3e565b610f6083836128a6565b60007f00000000000000000000000000000000000000000000000000000000000000004614156121a957507f000000000000000000000000000000000000000000000000000000000000000090565b50604080517f00000000000000000000000000000000000000000000000000000000000000006020808301919091527f0000000000000000000000000000000000000000000000000000000000000000828401527f000000000000000000000000000000000000000000000000000000000000000060608301524660808301523060a0808401919091528351808403909101815260c0909201909252805191012090565b6001600160a01b03811633146122cb5760405162461bcd60e51b815260206004820152602f60248201527f416363657373436f6e74726f6c3a2063616e206f6e6c792072656e6f756e636560448201527f20726f6c657320666f722073656c6600000000000000000000000000000000006064820152608401610a46565b611e428282612bbe565b6000610f37836001600160a01b038416612c41565b8154600090815b8181101561234e5760006123058284612d34565b90508486828154811061231a5761231a613ee1565b60009182526020909120015463ffffffff16111561233a57809250612348565b612345816001613ca3565b91505b506122f1565b81156123925784612360600184613daf565b8154811061237057612370613ee1565b60009182526020909120015464010000000090046001600160e01b0316612395565b60005b6001600160e01b031695945050505050565b6040516001600160a01b03808516602483015283166044820152606481018290526123df9085906323b872dd60e01b90608401611e01565b50505050565b60006124137f000000000000000000000000000000000000000000000000000000000000000063ffffffff16565b90506000811161248b5760405162461bcd60e51b815260206004820152603e60248201527f4162737472616374526577617264732e5f64697374726962757465526577617260448201527f64733a20746f74616c20736861726520737570706c79206973207a65726f00006064820152608401610a46565b8115611e4257806124ac6fffffffffffffffffffffffffffffffff84613d90565b6124b69190613ce7565b6009546124c39190613ca3565b60095560405182815233907fdf29796aad820e4bb192f3a8d631b76519bcd2cbe77cc85af20e9df53cece0869060200160405180910390a25050565b6001600160a01b038281166000818152600660208181526040808420805485845282862054949093528787167fffffffffffffffffffffffff00000000000000000000000000000000000000008416811790915590519190951694919391928592917f3134e8a2e6d97e929a7e54011ea5485d7d196dd5f0ba4d4ef95803e8e3fc257f9190a46123df828483612d4f565b600063ffffffff8211156120965760405162461bcd60e51b815260206004820152602660248201527f53616665436173743a2076616c756520646f65736e27742066697420696e203360448201527f32206269747300000000000000000000000000000000000000000000000000006064820152608401610a46565b600081831061261b5781610f37565b5090919050565b60008183101561261b5781610f37565b61263c8282612e8c565b611e428261264983612017565b611e8990613e82565b6000610f378383612f23565b6000610d3f61266b61215a565b8360405161190160f01b6020820152602281018390526042810182905260009060620160405160208183030381529060405280519060200120905092915050565b60008060006126bd87878787612f4d565b915091506126ca8161303a565b5095945050505050565b6001600160a01b03811660009081526005602052604090208054600181018255905b50919050565b6000610d3f825490565b6000828152600c60205260409020600101546127228133612b3e565b610f608383612bbe565b600080612738836110b2565b90508015610d3f576001600160a01b0383166000908152600b6020526040902054612764908290613ca3565b6001600160a01b0384166000818152600b6020526040908190209290925590517f8a43c4352486ec339f487f64af78ca5cbf06cd47833f073d3baf3a193e503161906127b39084815260200190565b60405180910390a292915050565b6000612816826040518060400160405280602081526020017f5361666545524332303a206c6f772d6c6576656c2063616c6c206661696c6564815250856001600160a01b0316611e5b9092919063ffffffff16565b805190915015610f6057808060200190518101906128349190613a34565b610f605760405162461bcd60e51b815260206004820152602a60248201527f5361666545524332303a204552433230206f7065726174696f6e20646964206e60448201527f6f742073756363656564000000000000000000000000000000000000000000006064820152608401610a46565b6000828152600c602090815260408083206001600160a01b038516845290915290205460ff16611e42576000828152600c602090815260408083206001600160a01b03851684529091529020805460ff191660011790556129043390565b6001600160a01b0316816001600160a01b0316837f2f8788117e7eff1d82e926ec794901d17c78024a50270940304540a733656f0d60405160405180910390a45050565b600081815260018301602052604081205461298f57508154600181810184556000848152602080822090930184905584548482528286019093526040902091909155610d3f565b506000610d3f565b606082471015612a0f5760405162461bcd60e51b815260206004820152602660248201527f416464726573733a20696e73756666696369656e742062616c616e636520666f60448201527f722063616c6c00000000000000000000000000000000000000000000000000006064820152608401610a46565b843b612a5d5760405162461bcd60e51b815260206004820152601d60248201527f416464726573733a2063616c6c20746f206e6f6e2d636f6e74726163740000006044820152606401610a46565b600080866001600160a01b03168587604051612a799190613b2c565b60006040518083038185875af1925050503d8060008114612ab6576040519150601f19603f3d011682016040523d82523d6000602084013e612abb565b606091505b5091509150612acb8282866131f5565b979650505050505050565b612ae0828261322e565b6123df60086133838361338f565b600954612afb9082613d09565b6001600160a01b0383166000908152600a6020526040902054612b1e9190613c63565b6001600160a01b039092166000908152600a602052604090209190915550565b6000828152600c602090815260408083206001600160a01b038516845290915290205460ff16611e4257612b7c816001600160a01b03166014613508565b612b87836020613508565b604051602001612b98929190613b48565b60408051601f198184030181529082905262461bcd60e51b8252610a4691600401613c30565b6000828152600c602090815260408083206001600160a01b038516845290915290205460ff1615611e42576000828152600c602090815260408083206001600160a01b0385168085529252808320805460ff1916905551339285917ff6391f5c32d9c69d2a47ea670b442974b53935d1edc7fd64eb21e047a839171b9190a45050565b60008181526001830160205260408120548015612d2a576000612c65600183613daf565b8554909150600090612c7990600190613daf565b9050818114612cde576000866000018281548110612c9957612c99613ee1565b9060005260206000200154905080876000018481548110612cbc57612cbc613ee1565b6000918252602080832090910192909255918252600188019052604090208390555b8554869080612cef57612cef613ecb565b600190038181906000526020600020016000905590558560010160008681526020019081526020016000206000905560019350505050610d3f565b6000915050610d3f565b6000612d436002848418613ce7565b610f3790848416613ca3565b816001600160a01b0316836001600160a01b031614158015612d715750600081115b15610f60576001600160a01b03831615612dff576001600160a01b03831660009081526007602052604081208190612dac906133838561338f565b91509150846001600160a01b03167fdec2bacdd2f05b59de34da9b523dff8be42e5e38e818c82fdb0bae774387a7248383604051612df4929190918252602082015260400190565b60405180910390a250505b6001600160a01b03821615610f60576001600160a01b03821660009081526007602052604081208190612e35906136b18561338f565b91509150836001600160a01b03167fdec2bacdd2f05b59de34da9b523dff8be42e5e38e818c82fdb0bae774387a7248383604051612e7d929190918252602082015260400190565b60405180910390a25050505050565b612e9682826136bd565b6002546001600160e01b031015612f155760405162461bcd60e51b815260206004820152603060248201527f4552433230566f7465733a20746f74616c20737570706c79207269736b73206f60448201527f766572666c6f77696e6720766f746573000000000000000000000000000000006064820152608401610a46565b6123df60086136b18361338f565b6000826000018281548110612f3a57612f3a613ee1565b9060005260206000200154905092915050565b6000807f7fffffffffffffffffffffffffffffff5d576e7357a4501ddfe92f46681b20a0831115612f845750600090506003613031565b8460ff16601b14158015612f9c57508460ff16601c14155b15612fad5750600090506004613031565b6040805160008082526020820180845289905260ff881692820192909252606081018690526080810185905260019060a0016020604051602081039080840390855afa158015613001573d6000803e3d6000fd5b5050604051601f1901519150506001600160a01b03811661302a57600060019250925050613031565b9150600090505b94509492505050565b600081600481111561304e5761304e613eb5565b14156130575750565b600181600481111561306b5761306b613eb5565b14156130b95760405162461bcd60e51b815260206004820152601860248201527f45434453413a20696e76616c6964207369676e617475726500000000000000006044820152606401610a46565b60028160048111156130cd576130cd613eb5565b141561311b5760405162461bcd60e51b815260206004820152601f60248201527f45434453413a20696e76616c6964207369676e6174757265206c656e677468006044820152606401610a46565b600381600481111561312f5761312f613eb5565b14156131885760405162461bcd60e51b815260206004820152602260248201527f45434453413a20696e76616c6964207369676e6174757265202773272076616c604482015261756560f01b6064820152608401610a46565b600481600481111561319c5761319c613eb5565b14156110835760405162461bcd60e51b815260206004820152602260248201527f45434453413a20696e76616c6964207369676e6174757265202776272076616c604482015261756560f01b6064820152608401610a46565b60608315613204575081610f37565b8251156132145782518084602001fd5b8160405162461bcd60e51b8152600401610a469190613c30565b6001600160a01b03821661328e5760405162461bcd60e51b815260206004820152602160248201527f45524332303a206275726e2066726f6d20746865207a65726f206164647265736044820152607360f81b6064820152608401610a46565b6001600160a01b038216600090815260208190526040902054818110156133025760405162461bcd60e51b815260206004820152602260248201527f45524332303a206275726e20616d6f756e7420657863656564732062616c616e604482015261636560f01b6064820152608401610a46565b6001600160a01b0383166000908152602081905260408120838303905560028054849290613331908490613daf565b90915550506040518281526000906001600160a01b038516907fddf252ad1be2c89b69c2b068fc378daa952ba7f163c4a11628f55a4df523b3ef9060200160405180910390a3610f60836000846137a0565b6000610f378284613daf565b8254600090819080156133da57856133a8600183613daf565b815481106133b8576133b8613ee1565b60009182526020909120015464010000000090046001600160e01b03166133dd565b60005b6001600160e01b031692506133f683858763ffffffff16565b915060008111801561343457504386613410600184613daf565b8154811061342057613420613ee1565b60009182526020909120015463ffffffff16145b1561349457613442826137d2565b8661344e600184613daf565b8154811061345e5761345e613ee1565b9060005260206000200160000160046101000a8154816001600160e01b0302191690836001600160e01b031602179055506134ff565b8560405180604001604052806134a943612590565b63ffffffff1681526020016134bd856137d2565b6001600160e01b0390811690915282546001810184556000938452602093849020835194909301519091166401000000000263ffffffff909316929092179101555b50935093915050565b60606000613517836002613d90565b613522906002613ca3565b67ffffffffffffffff81111561353a5761353a613ef7565b6040519080825280601f01601f191660200182016040528015613564576020820181803683370190505b509050600360fc1b8160008151811061357f5761357f613ee1565b60200101906001600160f81b031916908160001a905350600f60fb1b816001815181106135ae576135ae613ee1565b60200101906001600160f81b031916908160001a90535060006135d2846002613d90565b6135dd906001613ca3565b90505b6001811115613662577f303132333435363738396162636465660000000000000000000000000000000085600f166010811061361e5761361e613ee1565b1a60f81b82828151811061363457613634613ee1565b60200101906001600160f81b031916908160001a90535060049490941c9361365b81613e1b565b90506135e0565b508315610f375760405162461bcd60e51b815260206004820181905260248201527f537472696e67733a20686578206c656e67746820696e73756666696369656e746044820152606401610a46565b6000610f378284613ca3565b6001600160a01b0382166137135760405162461bcd60e51b815260206004820152601f60248201527f45524332303a206d696e7420746f20746865207a65726f2061646472657373006044820152606401610a46565b80600260008282546137259190613ca3565b90915550506001600160a01b03821660009081526020819052604081208054839290613752908490613ca3565b90915550506040518181526001600160a01b038316906000907fddf252ad1be2c89b69c2b068fc378daa952ba7f163c4a11628f55a4df523b3ef9060200160405180910390a3611e42600083835b6001600160a01b03838116600090815260066020526040808220548584168352912054610f6092918216911683612d4f565b60006001600160e01b038211156120965760405162461bcd60e51b815260206004820152602760248201527f53616665436173743a2076616c756520646f65736e27742066697420696e203260448201527f32342062697473000000000000000000000000000000000000000000000000006064820152608401610a46565b80356001600160a01b038116811461386857600080fd5b919050565b803560ff8116811461386857600080fd5b60006020828403121561389057600080fd5b610f3782613851565b600080604083850312156138ac57600080fd5b6138b583613851565b91506138c360208401613851565b90509250929050565b6000806000606084860312156138e157600080fd5b6138ea84613851565b92506138f860208501613851565b9150604084013590509250925092565b600080600080600080600060e0888a03121561392357600080fd5b61392c88613851565b965061393a60208901613851565b955060408801359450606088013593506139566080890161386d565b925060a0880135915060c0880135905092959891949750929550565b6000806040838503121561398557600080fd5b61398e83613851565b946020939093013593505050565b60008060008060008060c087890312156139b557600080fd5b6139be87613851565b955060208701359450604087013593506139da6060880161386d565b92506080870135915060a087013590509295509295509295565b60008060408385031215613a0757600080fd5b613a1083613851565b9150602083013563ffffffff81168114613a2957600080fd5b809150509250929050565b600060208284031215613a4657600080fd5b81518015158114610f3757600080fd5b600060208284031215613a6857600080fd5b5035919050565b60008060408385031215613a8257600080fd5b823591506138c360208401613851565b60008060408385031215613aa557600080fd5b50508035926020909101359150565b600060208284031215613ac657600080fd5b81356001600160e01b031981168114610f3757600080fd5b600060208284031215613af057600080fd5b5051919050565b600080600060608486031215613b0c57600080fd5b8335925060208401359150613b2360408501613851565b90509250925092565b60008251613b3e818460208701613def565b9190910192915050565b7f416363657373436f6e74726f6c3a206163636f756e7420000000000000000000815260008351613b80816017850160208801613def565b7f206973206d697373696e6720726f6c65200000000000000000000000000000006017918401918201528351613bbd816028840160208801613def565b01602801949350505050565b602080825282518282018190526000919060409081850190868401855b82811015613c23578151805185528681015167ffffffffffffffff9081168887015290860151168585015260609093019290850190600101613be6565b5091979650505050505050565b6020815260008251806020840152613c4f816040850160208701613def565b601f01601f19169190910160400192915050565b6000808212826001600160ff1b0303841381151615613c8457613c84613e9f565b600160ff1b8390038412811615613c9d57613c9d613e9f565b50500190565b60008219821115613cb657613cb6613e9f565b500190565b600067ffffffffffffffff808316818516808303821115613cde57613cde613e9f565b01949350505050565b600082613d0457634e487b7160e01b600052601260045260246000fd5b500490565b60006001600160ff1b03600084136000841385830485118282161615613d3157613d31613e9f565b600160ff1b6000871282811687830589121615613d5057613d50613e9f565b60008712925087820587128484161615613d6c57613d6c613e9f565b87850587128184161615613d8257613d82613e9f565b505050929093029392505050565b6000816000190483118215151615613daa57613daa613e9f565b500290565b600082821015613dc157613dc1613e9f565b500390565b600067ffffffffffffffff83811690831681811015613de757613de7613e9f565b039392505050565b60005b83811015613e0a578181015183820152602001613df2565b838111156123df5750506000910152565b600081613e2a57613e2a613e9f565b506000190190565b600181811c90821680613e4657607f821691505b602082108114156126f657634e487b7160e01b600052602260045260246000fd5b6000600019821415613e7b57613e7b613e9f565b5060010190565b6000600160ff1b821415613e9857613e98613e9f565b5060000390565b634e487b7160e01b600052601160045260246000fd5b634e487b7160e01b600052602160045260246000fd5b634e487b7160e01b600052603160045260246000fd5b634e487b7160e01b600052603260045260246000fd5b634e487b7160e01b600052604160045260246000fdfea164736f6c6343000807000a",
  "devdoc": {
    "kind": "dev",
    "methods": {
      "DOMAIN_SEPARATOR()": {
        "details": "See {IERC20Permit-DOMAIN_SEPARATOR}."
      },
      "allowance(address,address)": {
        "details": "See {IERC20-allowance}."
      },
      "approve(address,uint256)": {
        "details": "See {IERC20-approve}. Requirements: - `spender` cannot be the zero address."
      },
      "balanceOf(address)": {
        "details": "See {IERC20-balanceOf}."
      },
      "checkpoints(address,uint32)": {
        "details": "Get the `pos`-th checkpoint for `account`."
      },
      "cumulativeRewardsOf(address)": {
        "details": "accumulativeFundsOf(account) = withdrawableRewardsOf(account) + withdrawnRewardsOf(account) = (pointsPerShare * balanceOf(account) + pointsCorrection[account]) / POINTS_MULTIPLIER",
        "params": {
          "_account": "The address of a token holder."
        },
        "returns": {
          "_0": "The amount of rewards that `account` has earned in total."
        }
      },
      "decimals()": {
        "details": "Returns the number of decimals used to get its user representation. For example, if `decimals` equals `2`, a balance of `505` tokens should be displayed to a user as `5.05` (`505 / 10 ** 2`). Tokens usually opt for a value of 18, imitating the relationship between Ether and Wei. This is the value {ERC20} uses, unless this function is overridden; NOTE: This information is only used for _display_ purposes: it in no way affects any of the arithmetic of the contract, including {IERC20-balanceOf} and {IERC20-transfer}."
      },
      "decreaseAllowance(address,uint256)": {
        "details": "Atomically decreases the allowance granted to `spender` by the caller. This is an alternative to {approve} that can be used as a mitigation for problems described in {IERC20-approve}. Emits an {Approval} event indicating the updated allowance. Requirements: - `spender` cannot be the zero address. - `spender` must have allowance for the caller of at least `subtractedValue`."
      },
      "delegate(address)": {
        "details": "Delegate votes from the sender to `delegatee`."
      },
      "delegateBySig(address,uint256,uint256,uint8,bytes32,bytes32)": {
        "details": "Delegates votes from signer to `delegatee`"
      },
      "delegates(address)": {
        "details": "Get the address `account` is currently delegating to."
      },
      "getPastTotalSupply(uint256)": {
        "details": "Retrieve the `totalSupply` at the end of `blockNumber`. Note, this value is the sum of all balances. It is but NOT the sum of all the delegated votes! Requirements: - `blockNumber` must have been already mined"
      },
      "getPastVotes(address,uint256)": {
        "details": "Retrieve the number of votes for `account` at the end of `blockNumber`. Requirements: - `blockNumber` must have been already mined"
      },
      "getRoleAdmin(bytes32)": {
        "details": "Returns the admin role that controls `role`. See {grantRole} and {revokeRole}. To change a role's admin, use {_setRoleAdmin}."
      },
      "getRoleMember(bytes32,uint256)": {
        "details": "Returns one of the accounts that have `role`. `index` must be a value between 0 and {getRoleMemberCount}, non-inclusive. Role bearers are not sorted in any particular way, and their ordering may change at any point. WARNING: When using {getRoleMember} and {getRoleMemberCount}, make sure you perform all queries on the same block. See the following https://forum.openzeppelin.com/t/iterating-over-elements-on-enumerableset-in-openzeppelin-contracts/2296[forum post] for more information."
      },
      "getRoleMemberCount(bytes32)": {
        "details": "Returns the number of accounts that have `role`. Can be used together with {getRoleMember} to enumerate all bearers of a role."
      },
      "getVotes(address)": {
        "details": "Gets the current votes balance for `account`"
      },
      "grantRole(bytes32,address)": {
        "details": "Overload {grantRole} to track enumerable memberships"
      },
      "hasRole(bytes32,address)": {
        "details": "Returns `true` if `account` has been granted `role`."
      },
      "increaseAllowance(address,uint256)": {
        "details": "Atomically increases the allowance granted to `spender` by the caller. This is an alternative to {approve} that can be used as a mitigation for problems described in {IERC20-approve}. Emits an {Approval} event indicating the updated allowance. Requirements: - `spender` cannot be the zero address."
      },
      "name()": {
        "details": "Returns the name of the token."
      },
      "nonces(address)": {
        "details": "See {IERC20Permit-nonces}."
      },
      "numCheckpoints(address)": {
        "details": "Get number of checkpoints for `account`."
      },
      "permit(address,address,uint256,uint256,uint8,bytes32,bytes32)": {
        "details": "See {IERC20Permit-permit}."
      },
      "renounceRole(bytes32,address)": {
        "details": "Overload {renounceRole} to track enumerable memberships"
      },
      "revokeRole(bytes32,address)": {
        "details": "Overload {revokeRole} to track enumerable memberships"
      },
      "supportsInterface(bytes4)": {
        "details": "See {IERC165-supportsInterface}."
      },
      "symbol()": {
        "details": "Returns the symbol of the token, usually a shorter version of the name."
      },
      "totalSupply()": {
        "details": "See {IERC20-totalSupply}."
      },
      "transfer(address,uint256)": {
        "details": "See {IERC20-transfer}. Requirements: - `recipient` cannot be the zero address. - the caller must have a balance of at least `amount`."
      },
      "transferFrom(address,address,uint256)": {
        "details": "See {IERC20-transferFrom}. Emits an {Approval} event indicating the updated allowance. This is not required by the EIP. See the note at the beginning of {ERC20}. Requirements: - `sender` and `recipient` cannot be the zero address. - `sender` must have a balance of at least `amount`. - the caller must have allowance for ``sender``'s tokens of at least `amount`."
      },
      "withdrawableRewardsOf(address)": {
        "details": "Returns the total amount of rewards a given address is able to withdraw.",
        "params": {
          "_account": "Address of a reward recipient"
        },
        "returns": {
          "_0": "A uint256 representing the rewards `account` can withdraw"
        }
      },
      "withdrawnRewardsOf(address)": {
        "params": {
          "_account": "The address of a token holder."
        },
        "returns": {
          "_0": "The amount of rewards that `account` has withdrawn."
        }
      }
    },
    "version": 1
  },
  "userdoc": {
    "kind": "user",
    "methods": {
      "cumulativeRewardsOf(address)": {
        "notice": "View the amount of rewards that an address has earned in total."
      },
      "withdrawnRewardsOf(address)": {
        "notice": "View the amount of rewards that an address has withdrawn."
      }
    },
    "version": 1
  },
  "storageLayout": {
    "storage": [
      {
        "astId": 599,
        "contract": "contracts/TimeLockNonTransferablePool.sol:TimeLockNonTransferablePool",
        "label": "_balances",
        "offset": 0,
        "slot": "0",
        "type": "t_mapping(t_address,t_uint256)"
      },
      {
        "astId": 605,
        "contract": "contracts/TimeLockNonTransferablePool.sol:TimeLockNonTransferablePool",
        "label": "_allowances",
        "offset": 0,
        "slot": "1",
        "type": "t_mapping(t_address,t_mapping(t_address,t_uint256))"
      },
      {
        "astId": 607,
        "contract": "contracts/TimeLockNonTransferablePool.sol:TimeLockNonTransferablePool",
        "label": "_totalSupply",
        "offset": 0,
        "slot": "2",
        "type": "t_uint256"
      },
      {
        "astId": 609,
        "contract": "contracts/TimeLockNonTransferablePool.sol:TimeLockNonTransferablePool",
        "label": "_name",
        "offset": 0,
        "slot": "3",
        "type": "t_string_storage"
      },
      {
        "astId": 611,
        "contract": "contracts/TimeLockNonTransferablePool.sol:TimeLockNonTransferablePool",
        "label": "_symbol",
        "offset": 0,
        "slot": "4",
        "type": "t_string_storage"
      },
      {
        "astId": 1901,
        "contract": "contracts/TimeLockNonTransferablePool.sol:TimeLockNonTransferablePool",
        "label": "_nonces",
        "offset": 0,
        "slot": "5",
        "type": "t_mapping(t_address,t_struct(Counter)2632_storage)"
      },
      {
        "astId": 1230,
        "contract": "contracts/TimeLockNonTransferablePool.sol:TimeLockNonTransferablePool",
        "label": "_delegates",
        "offset": 0,
        "slot": "6",
        "type": "t_mapping(t_address,t_address)"
      },
      {
        "astId": 1236,
        "contract": "contracts/TimeLockNonTransferablePool.sol:TimeLockNonTransferablePool",
        "label": "_checkpoints",
        "offset": 0,
        "slot": "7",
        "type": "t_mapping(t_address,t_array(t_struct(Checkpoint)1221_storage)dyn_storage)"
      },
      {
        "astId": 1240,
        "contract": "contracts/TimeLockNonTransferablePool.sol:TimeLockNonTransferablePool",
        "label": "_totalSupplyCheckpoints",
        "offset": 0,
        "slot": "8",
        "type": "t_array(t_struct(Checkpoint)1221_storage)dyn_storage"
      },
      {
        "astId": 5751,
        "contract": "contracts/TimeLockNonTransferablePool.sol:TimeLockNonTransferablePool",
        "label": "pointsPerShare",
        "offset": 0,
        "slot": "9",
        "type": "t_uint256"
      },
      {
        "astId": 5755,
        "contract": "contracts/TimeLockNonTransferablePool.sol:TimeLockNonTransferablePool",
        "label": "pointsCorrection",
        "offset": 0,
        "slot": "10",
        "type": "t_mapping(t_address,t_int256)"
      },
      {
        "astId": 5759,
        "contract": "contracts/TimeLockNonTransferablePool.sol:TimeLockNonTransferablePool",
        "label": "withdrawnRewards",
        "offset": 0,
        "slot": "11",
        "type": "t_mapping(t_address,t_uint256)"
      },
      {
        "astId": 24,
        "contract": "contracts/TimeLockNonTransferablePool.sol:TimeLockNonTransferablePool",
        "label": "_roles",
        "offset": 0,
        "slot": "12",
        "type": "t_mapping(t_bytes32,t_struct(RoleData)19_storage)"
      },
      {
        "astId": 325,
        "contract": "contracts/TimeLockNonTransferablePool.sol:TimeLockNonTransferablePool",
        "label": "_roleMembers",
        "offset": 0,
        "slot": "13",
        "type": "t_mapping(t_bytes32,t_struct(AddressSet)4237_storage)"
      },
      {
        "astId": 5096,
        "contract": "contracts/TimeLockNonTransferablePool.sol:TimeLockNonTransferablePool",
        "label": "depositsOf",
        "offset": 0,
        "slot": "14",
        "type": "t_mapping(t_address,t_array(t_struct(Deposit)5103_storage)dyn_storage)"
      }
    ],
    "types": {
      "t_address": {
        "encoding": "inplace",
        "label": "address",
        "numberOfBytes": "20"
      },
      "t_array(t_bytes32)dyn_storage": {
        "base": "t_bytes32",
        "encoding": "dynamic_array",
        "label": "bytes32[]",
        "numberOfBytes": "32"
      },
      "t_array(t_struct(Checkpoint)1221_storage)dyn_storage": {
        "base": "t_struct(Checkpoint)1221_storage",
        "encoding": "dynamic_array",
        "label": "struct ERC20Votes.Checkpoint[]",
        "numberOfBytes": "32"
      },
      "t_array(t_struct(Deposit)5103_storage)dyn_storage": {
        "base": "t_struct(Deposit)5103_storage",
        "encoding": "dynamic_array",
        "label": "struct TimeLockPool.Deposit[]",
        "numberOfBytes": "32"
      },
      "t_bool": {
        "encoding": "inplace",
        "label": "bool",
        "numberOfBytes": "1"
      },
      "t_bytes32": {
        "encoding": "inplace",
        "label": "bytes32",
        "numberOfBytes": "32"
      },
      "t_int256": {
        "encoding": "inplace",
        "label": "int256",
        "numberOfBytes": "32"
      },
      "t_mapping(t_address,t_address)": {
        "encoding": "mapping",
        "key": "t_address",
        "label": "mapping(address => address)",
        "numberOfBytes": "32",
        "value": "t_address"
      },
      "t_mapping(t_address,t_array(t_struct(Checkpoint)1221_storage)dyn_storage)": {
        "encoding": "mapping",
        "key": "t_address",
        "label": "mapping(address => struct ERC20Votes.Checkpoint[])",
        "numberOfBytes": "32",
        "value": "t_array(t_struct(Checkpoint)1221_storage)dyn_storage"
      },
      "t_mapping(t_address,t_array(t_struct(Deposit)5103_storage)dyn_storage)": {
        "encoding": "mapping",
        "key": "t_address",
        "label": "mapping(address => struct TimeLockPool.Deposit[])",
        "numberOfBytes": "32",
        "value": "t_array(t_struct(Deposit)5103_storage)dyn_storage"
      },
      "t_mapping(t_address,t_bool)": {
        "encoding": "mapping",
        "key": "t_address",
        "label": "mapping(address => bool)",
        "numberOfBytes": "32",
        "value": "t_bool"
      },
      "t_mapping(t_address,t_int256)": {
        "encoding": "mapping",
        "key": "t_address",
        "label": "mapping(address => int256)",
        "numberOfBytes": "32",
        "value": "t_int256"
      },
      "t_mapping(t_address,t_mapping(t_address,t_uint256))": {
        "encoding": "mapping",
        "key": "t_address",
        "label": "mapping(address => mapping(address => uint256))",
        "numberOfBytes": "32",
        "value": "t_mapping(t_address,t_uint256)"
      },
      "t_mapping(t_address,t_struct(Counter)2632_storage)": {
        "encoding": "mapping",
        "key": "t_address",
        "label": "mapping(address => struct Counters.Counter)",
        "numberOfBytes": "32",
        "value": "t_struct(Counter)2632_storage"
      },
      "t_mapping(t_address,t_uint256)": {
        "encoding": "mapping",
        "key": "t_address",
        "label": "mapping(address => uint256)",
        "numberOfBytes": "32",
        "value": "t_uint256"
      },
      "t_mapping(t_bytes32,t_struct(AddressSet)4237_storage)": {
        "encoding": "mapping",
        "key": "t_bytes32",
        "label": "mapping(bytes32 => struct EnumerableSet.AddressSet)",
        "numberOfBytes": "32",
        "value": "t_struct(AddressSet)4237_storage"
      },
      "t_mapping(t_bytes32,t_struct(RoleData)19_storage)": {
        "encoding": "mapping",
        "key": "t_bytes32",
        "label": "mapping(bytes32 => struct AccessControl.RoleData)",
        "numberOfBytes": "32",
        "value": "t_struct(RoleData)19_storage"
      },
      "t_mapping(t_bytes32,t_uint256)": {
        "encoding": "mapping",
        "key": "t_bytes32",
        "label": "mapping(bytes32 => uint256)",
        "numberOfBytes": "32",
        "value": "t_uint256"
      },
      "t_string_storage": {
        "encoding": "bytes",
        "label": "string",
        "numberOfBytes": "32"
      },
      "t_struct(AddressSet)4237_storage": {
        "encoding": "inplace",
        "label": "struct EnumerableSet.AddressSet",
        "members": [
          {
            "astId": 4236,
            "contract": "contracts/TimeLockNonTransferablePool.sol:TimeLockNonTransferablePool",
            "label": "_inner",
            "offset": 0,
            "slot": "0",
            "type": "t_struct(Set)3936_storage"
          }
        ],
        "numberOfBytes": "64"
      },
      "t_struct(Checkpoint)1221_storage": {
        "encoding": "inplace",
        "label": "struct ERC20Votes.Checkpoint",
        "members": [
          {
            "astId": 1218,
            "contract": "contracts/TimeLockNonTransferablePool.sol:TimeLockNonTransferablePool",
            "label": "fromBlock",
            "offset": 0,
            "slot": "0",
            "type": "t_uint32"
          },
          {
            "astId": 1220,
            "contract": "contracts/TimeLockNonTransferablePool.sol:TimeLockNonTransferablePool",
            "label": "votes",
            "offset": 4,
            "slot": "0",
            "type": "t_uint224"
          }
        ],
        "numberOfBytes": "32"
      },
      "t_struct(Counter)2632_storage": {
        "encoding": "inplace",
        "label": "struct Counters.Counter",
        "members": [
          {
            "astId": 2631,
            "contract": "contracts/TimeLockNonTransferablePool.sol:TimeLockNonTransferablePool",
            "label": "_value",
            "offset": 0,
            "slot": "0",
            "type": "t_uint256"
          }
        ],
        "numberOfBytes": "32"
      },
      "t_struct(Deposit)5103_storage": {
        "encoding": "inplace",
        "label": "struct TimeLockPool.Deposit",
        "members": [
          {
            "astId": 5098,
            "contract": "contracts/TimeLockNonTransferablePool.sol:TimeLockNonTransferablePool",
            "label": "amount",
            "offset": 0,
            "slot": "0",
            "type": "t_uint256"
          },
          {
            "astId": 5100,
            "contract": "contracts/TimeLockNonTransferablePool.sol:TimeLockNonTransferablePool",
            "label": "start",
            "offset": 0,
            "slot": "1",
            "type": "t_uint64"
          },
          {
            "astId": 5102,
            "contract": "contracts/TimeLockNonTransferablePool.sol:TimeLockNonTransferablePool",
            "label": "end",
            "offset": 8,
            "slot": "1",
            "type": "t_uint64"
          }
        ],
        "numberOfBytes": "64"
      },
      "t_struct(RoleData)19_storage": {
        "encoding": "inplace",
        "label": "struct AccessControl.RoleData",
        "members": [
          {
            "astId": 16,
            "contract": "contracts/TimeLockNonTransferablePool.sol:TimeLockNonTransferablePool",
            "label": "members",
            "offset": 0,
            "slot": "0",
            "type": "t_mapping(t_address,t_bool)"
          },
          {
            "astId": 18,
            "contract": "contracts/TimeLockNonTransferablePool.sol:TimeLockNonTransferablePool",
            "label": "adminRole",
            "offset": 0,
            "slot": "1",
            "type": "t_bytes32"
          }
        ],
        "numberOfBytes": "64"
      },
      "t_struct(Set)3936_storage": {
        "encoding": "inplace",
        "label": "struct EnumerableSet.Set",
        "members": [
          {
            "astId": 3931,
            "contract": "contracts/TimeLockNonTransferablePool.sol:TimeLockNonTransferablePool",
            "label": "_values",
            "offset": 0,
            "slot": "0",
            "type": "t_array(t_bytes32)dyn_storage"
          },
          {
            "astId": 3935,
            "contract": "contracts/TimeLockNonTransferablePool.sol:TimeLockNonTransferablePool",
            "label": "_indexes",
            "offset": 0,
            "slot": "1",
            "type": "t_mapping(t_bytes32,t_uint256)"
          }
        ],
        "numberOfBytes": "64"
      },
      "t_uint224": {
        "encoding": "inplace",
        "label": "uint224",
        "numberOfBytes": "28"
      },
      "t_uint256": {
        "encoding": "inplace",
        "label": "uint256",
        "numberOfBytes": "32"
      },
      "t_uint32": {
        "encoding": "inplace",
        "label": "uint32",
        "numberOfBytes": "4"
      },
      "t_uint64": {
        "encoding": "inplace",
        "label": "uint64",
        "numberOfBytes": "8"
      }
    }
  }
}