{
  "address": "0x4f7A4dD386625cE863C86237b634D9a44c69dA44",
  "abi": [
    {
      "inputs": [
        {
          "internalType": "address",
          "name": "_reward",
          "type": "address"
        },
        {
          "internalType": "address",
          "name": "_rewardSource",
          "type": "address"
        }
      ],
      "stateMutability": "nonpayable",
      "type": "constructor"
    },
    {
      "anonymous": false,
      "inputs": [
        {
          "indexed": true,
          "internalType": "address",
          "name": "pool",
          "type": "address"
        },
        {
          "indexed": false,
          "internalType": "uint256",
          "name": "weight",
          "type": "uint256"
        }
      ],
      "name": "PoolAdded",
      "type": "event"
    },
    {
      "anonymous": false,
      "inputs": [
        {
          "indexed": true,
          "internalType": "uint256",
          "name": "poolId",
          "type": "uint256"
        },
        {
          "indexed": true,
          "internalType": "address",
          "name": "pool",
          "type": "address"
        }
      ],
      "name": "PoolRemoved",
      "type": "event"
    },
    {
      "anonymous": false,
      "inputs": [
        {
          "indexed": false,
          "internalType": "address",
          "name": "_from",
          "type": "address"
        },
        {
          "indexed": true,
          "internalType": "uint256",
          "name": "_amount",
          "type": "uint256"
        }
      ],
      "name": "RewardsDistributed",
      "type": "event"
    },
    {
      "anonymous": false,
      "inputs": [
        {
          "indexed": false,
          "internalType": "uint256",
          "name": "rewardsPerSecond",
          "type": "uint256"
        }
      ],
      "name": "RewardsPerSecondSet",
      "type": "event"
    },
    {
      "anonymous": false,
      "inputs": [
        {
          "indexed": true,
          "internalType": "bytes32",
          "name": "role",
          "type": "bytes32"
        },
        {
          "indexed": true,
          "internalType": "bytes32",
          "name": "previousAdminRole",
          "type": "bytes32"
        },
        {
          "indexed": true,
          "internalType": "bytes32",
          "name": "newAdminRole",
          "type": "bytes32"
        }
      ],
      "name": "RoleAdminChanged",
      "type": "event"
    },
    {
      "anonymous": false,
      "inputs": [
        {
          "indexed": true,
          "internalType": "bytes32",
          "name": "role",
          "type": "bytes32"
        },
        {
          "indexed": true,
          "internalType": "address",
          "name": "account",
          "type": "address"
        },
        {
          "indexed": true,
          "internalType": "address",
          "name": "sender",
          "type": "address"
        }
      ],
      "name": "RoleGranted",
      "type": "event"
    },
    {
      "anonymous": false,
      "inputs": [
        {
          "indexed": true,
          "internalType": "bytes32",
          "name": "role",
          "type": "bytes32"
        },
        {
          "indexed": true,
          "internalType": "address",
          "name": "account",
          "type": "address"
        },
        {
          "indexed": true,
          "internalType": "address",
          "name": "sender",
          "type": "address"
        }
      ],
      "name": "RoleRevoked",
      "type": "event"
    },
    {
      "anonymous": false,
      "inputs": [
        {
          "indexed": true,
          "internalType": "address",
          "name": "by",
          "type": "address"
        },
        {
          "indexed": true,
          "internalType": "address",
          "name": "receiver",
          "type": "address"
        },
        {
          "indexed": true,
          "internalType": "address",
          "name": "token",
          "type": "address"
        },
        {
          "indexed": false,
          "internalType": "uint256",
          "name": "amount",
          "type": "uint256"
        }
      ],
      "name": "TokenSaved",
      "type": "event"
    },
    {
      "anonymous": false,
      "inputs": [
        {
          "indexed": true,
          "internalType": "uint256",
          "name": "poolId",
          "type": "uint256"
        },
        {
          "indexed": true,
          "internalType": "address",
          "name": "pool",
          "type": "address"
        },
        {
          "indexed": false,
          "internalType": "uint256",
          "name": "newWeight",
          "type": "uint256"
        }
      ],
      "name": "WeightAdjusted",
      "type": "event"
    },
    {
      "inputs": [],
      "name": "DEFAULT_ADMIN_ROLE",
      "outputs": [
        {
          "internalType": "bytes32",
          "name": "",
          "type": "bytes32"
        }
      ],
      "stateMutability": "view",
      "type": "function"
    },
    {
      "inputs": [],
      "name": "GOV_ROLE",
      "outputs": [
        {
          "internalType": "bytes32",
          "name": "",
          "type": "bytes32"
        }
      ],
      "stateMutability": "view",
      "type": "function"
    },
    {
      "inputs": [],
      "name": "MAX_POOL_COUNT",
      "outputs": [
        {
          "internalType": "uint256",
          "name": "",
          "type": "uint256"
        }
      ],
      "stateMutability": "view",
      "type": "function"
    },
    {
      "inputs": [],
      "name": "REWARD_DISTRIBUTOR_ROLE",
      "outputs": [
        {
          "internalType": "bytes32",
          "name": "",
          "type": "bytes32"
        }
      ],
      "stateMutability": "view",
      "type": "function"
    },
    {
      "inputs": [],
      "name": "TOKEN_SAVER_ROLE",
      "outputs": [
        {
          "internalType": "bytes32",
          "name": "",
          "type": "bytes32"
        }
      ],
      "stateMutability": "view",
      "type": "function"
    },
    {
      "inputs": [
        {
          "internalType": "address",
          "name": "_poolContract",
          "type": "address"
        },
        {
          "internalType": "uint256",
          "name": "_weight",
          "type": "uint256"
        }
      ],
      "name": "addPool",
      "outputs": [],
      "stateMutability": "nonpayable",
      "type": "function"
    },
    {
      "inputs": [
        {
          "internalType": "uint256",
          "name": "_poolId",
          "type": "uint256"
        },
        {
          "internalType": "uint256",
          "name": "_newWeight",
          "type": "uint256"
        }
      ],
      "name": "adjustWeight",
      "outputs": [],
      "stateMutability": "nonpayable",
      "type": "function"
    },
    {
      "inputs": [],
      "name": "distributeRewards",
      "outputs": [],
      "stateMutability": "nonpayable",
      "type": "function"
    },
    {
      "inputs": [],
      "name": "getPools",
      "outputs": [
        {
          "components": [
            {
              "internalType": "contract IBasePool",
              "name": "poolContract",
              "type": "address"
            },
            {
              "internalType": "uint256",
              "name": "weight",
              "type": "uint256"
            }
          ],
          "internalType": "struct LiquidityMiningManager.Pool[]",
          "name": "result",
          "type": "tuple[]"
        }
      ],
      "stateMutability": "view",
      "type": "function"
    },
    {
      "inputs": [
        {
          "internalType": "bytes32",
          "name": "role",
          "type": "bytes32"
        }
      ],
      "name": "getRoleAdmin",
      "outputs": [
        {
          "internalType": "bytes32",
          "name": "",
          "type": "bytes32"
        }
      ],
      "stateMutability": "view",
      "type": "function"
    },
    {
      "inputs": [
        {
          "internalType": "bytes32",
          "name": "role",
          "type": "bytes32"
        },
        {
          "internalType": "uint256",
          "name": "index",
          "type": "uint256"
        }
      ],
      "name": "getRoleMember",
      "outputs": [
        {
          "internalType": "address",
          "name": "",
          "type": "address"
        }
      ],
      "stateMutability": "view",
      "type": "function"
    },
    {
      "inputs": [
        {
          "internalType": "bytes32",
          "name": "role",
          "type": "bytes32"
        }
      ],
      "name": "getRoleMemberCount",
      "outputs": [
        {
          "internalType": "uint256",
          "name": "",
          "type": "uint256"
        }
      ],
      "stateMutability": "view",
      "type": "function"
    },
    {
      "inputs": [
        {
          "internalType": "bytes32",
          "name": "role",
          "type": "bytes32"
        },
        {
          "internalType": "address",
          "name": "account",
          "type": "address"
        }
      ],
      "name": "grantRole",
      "outputs": [],
      "stateMutability": "nonpayable",
      "type": "function"
    },
    {
      "inputs": [
        {
          "internalType": "bytes32",
          "name": "role",
          "type": "bytes32"
        },
        {
          "internalType": "address",
          "name": "account",
          "type": "address"
        }
      ],
      "name": "hasRole",
      "outputs": [
        {
          "internalType": "bool",
          "name": "",
          "type": "bool"
        }
      ],
      "stateMutability": "view",
      "type": "function"
    },
    {
      "inputs": [],
      "name": "lastDistribution",
      "outputs": [
        {
          "internalType": "uint256",
          "name": "",
          "type": "uint256"
        }
      ],
      "stateMutability": "view",
      "type": "function"
    },
    {
      "inputs": [
        {
          "internalType": "address",
          "name": "",
          "type": "address"
        }
      ],
      "name": "poolAdded",
      "outputs": [
        {
          "internalType": "bool",
          "name": "",
          "type": "bool"
        }
      ],
      "stateMutability": "view",
      "type": "function"
    },
    {
      "inputs": [
        {
          "internalType": "uint256",
          "name": "",
          "type": "uint256"
        }
      ],
      "name": "pools",
      "outputs": [
        {
          "internalType": "contract IBasePool",
          "name": "poolContract",
          "type": "address"
        },
        {
          "internalType": "uint256",
          "name": "weight",
          "type": "uint256"
        }
      ],
      "stateMutability": "view",
      "type": "function"
    },
    {
      "inputs": [
        {
          "internalType": "uint256",
          "name": "_poolId",
          "type": "uint256"
        }
      ],
      "name": "removePool",
      "outputs": [],
      "stateMutability": "nonpayable",
      "type": "function"
    },
    {
      "inputs": [
        {
          "internalType": "bytes32",
          "name": "role",
          "type": "bytes32"
        },
        {
          "internalType": "address",
          "name": "account",
          "type": "address"
        }
      ],
      "name": "renounceRole",
      "outputs": [],
      "stateMutability": "nonpayable",
      "type": "function"
    },
    {
      "inputs": [
        {
          "internalType": "bytes32",
          "name": "role",
          "type": "bytes32"
        },
        {
          "internalType": "address",
          "name": "account",
          "type": "address"
        }
      ],
      "name": "revokeRole",
      "outputs": [],
      "stateMutability": "nonpayable",
      "type": "function"
    },
    {
      "inputs": [],
      "name": "reward",
      "outputs": [
        {
          "internalType": "contract IERC20",
          "name": "",
          "type": "address"
        }
      ],
      "stateMutability": "view",
      "type": "function"
    },
    {
      "inputs": [],
      "name": "rewardPerSecond",
      "outputs": [
        {
          "internalType": "uint256",
          "name": "",
          "type": "uint256"
        }
      ],
      "stateMutability": "view",
      "type": "function"
    },
    {
      "inputs": [],
      "name": "rewardSource",
      "outputs": [
        {
          "internalType": "address",
          "name": "",
          "type": "address"
        }
      ],
      "stateMutability": "view",
      "type": "function"
    },
    {
      "inputs": [
        {
          "internalType": "address",
          "name": "_token",
          "type": "address"
        },
        {
          "internalType": "address",
          "name": "_receiver",
          "type": "address"
        },
        {
          "internalType": "uint256",
          "name": "_amount",
          "type": "uint256"
        }
      ],
      "name": "saveToken",
      "outputs": [],
      "stateMutability": "nonpayable",
      "type": "function"
    },
    {
      "inputs": [
        {
          "internalType": "uint256",
          "name": "_rewardPerSecond",
          "type": "uint256"
        }
      ],
      "name": "setRewardPerSecond",
      "outputs": [],
      "stateMutability": "nonpayable",
      "type": "function"
    },
    {
      "inputs": [
        {
          "internalType": "bytes4",
          "name": "interfaceId",
          "type": "bytes4"
        }
      ],
      "name": "supportsInterface",
      "outputs": [
        {
          "internalType": "bool",
          "name": "",
          "type": "bool"
        }
      ],
      "stateMutability": "view",
      "type": "function"
    },
    {
      "inputs": [],
      "name": "totalWeight",
      "outputs": [
        {
          "internalType": "uint256",
          "name": "",
          "type": "uint256"
        }
      ],
      "stateMutability": "view",
      "type": "function"
    }
  ],
  "transactionHash": "0x810099bb133944782674847320b762539463bb5a7662838ff4b7a54a94e3e1d7",
  "args": [
    "0x23FF74Af1a1e8Ef4433d761943Eb164F927bA2e2",
    "0xCAa58677fa6a5437B0eDD37659f94DdBEa575945"
  ],
  "solcInputHash": "4dd4042dc1c15f899b33729ede82d124",
  "bytecode": "0x60c0604052600a6002553480156200001657600080fd5b50604051620024ca380380620024ca8339810160408190526200003991620002d0565b620000466000336200014e565b6001600160a01b038216620000b75760405162461bcd60e51b815260206004820152603c6024820152600080516020620024aa83398151915260448201527f6f723a2072657761726420746f6b656e206d757374206265207365740000000060648201526084015b60405180910390fd5b6001600160a01b0381166200012f5760405162461bcd60e51b81526020600482015260426024820152600080516020620024aa83398151915260448201527f6f723a20726577617264536f7572636520746f6b656e206d7573742062652073606482015261195d60f21b608482015260a401620000ae565b6001600160601b0319606092831b8116608052911b1660a05262000308565b6200016582826200019160201b6200132c1760201c565b60008281526001602090815260409091206200018c9183906200133a620001a1821b17901c565b505050565b6200019d8282620001c1565b5050565b6000620001b8836001600160a01b03841662000261565b90505b92915050565b6000828152602081815260408083206001600160a01b038516845290915290205460ff166200019d576000828152602081815260408083206001600160a01b03851684529091529020805460ff191660011790556200021d3390565b6001600160a01b0316816001600160a01b0316837f2f8788117e7eff1d82e926ec794901d17c78024a50270940304540a733656f0d60405160405180910390a45050565b6000818152600183016020526040812054620002aa57508154600181810184556000848152602080822090930184905584548482528286019093526040902091909155620001bb565b506000620001bb565b80516001600160a01b0381168114620002cb57600080fd5b919050565b60008060408385031215620002e457600080fd5b620002ef83620002b3565b9150620002ff60208401620002b3565b90509250929050565b60805160601c60a05160601c61214c6200035e6000396000818161038c01528181610abb0152610ce60152600081816101eb015281816107d901528181610a9901528181610c2a0152610cc4015261214c6000f3fe608060405234801561001057600080fd5b50600436106101b95760003560e01c80639010d07c116100f9578063a717639c11610097578063b9c849b611610071578063b9c849b61461042b578063ca15c8731461043e578063d3b91d8414610451578063d547741f1461047457600080fd5b8063a717639c146103c9578063ac4afa38146103d2578063b536818a1461040457600080fd5b80639afdb2c2116100d35780639afdb2c2146103745780639cfbc00214610387578063a217fddf146103ae578063a38dcbd0146103b657600080fd5b80639010d07c1461032157806391d148541461033457806396c82e571461036b57600080fd5b806336568abe11610166578063673a2a1f11610140578063673a2a1f146102d45780636f4a2cd0146102e957806376175b06146102f15780638f10369a1461031857600080fd5b806336568abe146102a55780635a8c2e26146102b857806366da5815146102c157600080fd5b80632f2ff15d116101975780632f2ff15d1461025657806332a9caba1461026b57806332e4bb0a1461027e57600080fd5b806301ffc9a7146101be578063228cb733146101e6578063248a9ca314610225575b600080fd5b6101d16101cc366004611eae565b610487565b60405190151581526020015b60405180910390f35b61020d7f000000000000000000000000000000000000000000000000000000000000000081565b6040516001600160a01b0390911681526020016101dd565b610248610233366004611e47565b60009081526020819052604090206001015490565b6040519081526020016101dd565b610269610264366004611e60565b6104b2565b005b610269610279366004611dfb565b6104d9565b6102487fb814ff4a26ea3ec5cd1fa579daad86324826254265f3acfec78303a19845b44981565b6102696102b3366004611e60565b610849565b61024860025481565b6102696102cf366004611e47565b61086b565b6102dc61093e565b6040516101dd9190611f8e565b6102696109b3565b6102487fd9d917c4034cff8a8c5fa1e40f9fbaf906b827c33ae3ab1fcabbb616cb8ef24d81565b61024860035481565b61020d61032f366004611e8c565b610d4e565b6101d1610342366004611e60565b6000918252602082815260408084206001600160a01b0393909316845291905290205460ff1690565b61024860055481565b610269610382366004611dbf565b610d6d565b61020d7f000000000000000000000000000000000000000000000000000000000000000081565b610248600081565b6102696103c4366004611e47565b610e7f565b61024860045481565b6103e56103e0366004611e47565b61111c565b604080516001600160a01b0390931683526020830191909152016101dd565b6102487f0603f2636f0ca34ae3ea5a23bb826e2bd2ffd59fb1c01edc1ba10fba2899d1ba81565b610269610439366004611e8c565b611154565b61024861044c366004611e47565b61130b565b6101d161045f366004611da4565b60066020526000908152604090205460ff1681565b610269610482366004611e60565b611322565b60006001600160e01b03198216635a05180f60e01b14806104ac57506104ac8261134f565b92915050565b6104bc8282611384565b60008281526001602052604090206104d4908261133a565b505050565b6105037f0603f2636f0ca34ae3ea5a23bb826e2bd2ffd59fb1c01edc1ba10fba2899d1ba33610342565b61056e5760405162461bcd60e51b815260206004820152603160248201527f4c69717569646974794d696e696e674d616e616765722e6f6e6c79476f763a206044820152701c195c9b5a5cdcda5bdb8819195b9a5959607a1b60648201526084015b60405180910390fd5b6105766109b3565b6001600160a01b0382166105f25760405162461bcd60e51b815260206004820152603960248201527f4c69717569646974794d696e696e674d616e616765722e616464506f6f6c3a2060448201527f706f6f6c20636f6e7472616374206d75737420626520736574000000000000006064820152608401610565565b6001600160a01b03821660009081526006602052604090205460ff16156106815760405162461bcd60e51b815260206004820152603260248201527f4c69717569646974794d696e696e674d616e616765722e616464506f6f6c3a2060448201527f506f6f6c20616c726561647920616464656400000000000000000000000000006064820152608401610565565b600254600754106106fa5760405162461bcd60e51b815260206004820152603b60248201527f4c69717569646974794d696e696e674d616e616765722e616464506f6f6c3a2060448201527f4d617820616d6f756e74206f6620706f6f6c73207265616368656400000000006064820152608401610565565b6040805180820182526001600160a01b0384811680835260208084018681526007805460018082018355600092835296517fa66cc928b5edb82af9bd49922954155ab7b0942694bea4ce44661d9a8736c6886002909202918201805473ffffffffffffffffffffffffffffffffffffffff1916919097161790955590517fa66cc928b5edb82af9bd49922954155ab7b0942694bea4ce44661d9a8736c6899094019390935590825260069052918220805460ff19169091179055600580548392906107c6908490612019565b9091555061080290506001600160a01b037f000000000000000000000000000000000000000000000000000000000000000016836000196113aa565b816001600160a01b03167f0c98febfffcec480c66a977e13f14bafdb5199ea9603591a0715b0cabe0c3ae28260405161083d91815260200190565b60405180910390a25050565b610853828261151d565b60008281526001602052604090206104d490826115a5565b6108957f0603f2636f0ca34ae3ea5a23bb826e2bd2ffd59fb1c01edc1ba10fba2899d1ba33610342565b6108fb5760405162461bcd60e51b815260206004820152603160248201527f4c69717569646974794d696e696e674d616e616765722e6f6e6c79476f763a206044820152701c195c9b5a5cdcda5bdb8819195b9a5959607a1b6064820152608401610565565b6109036109b3565b60038190556040518181527fa779fa0f0a75020027d18183bb38fa4a9abeea71bb307e00ac7f5410527967ab9060200160405180910390a150565b60606007805480602002602001604051908101604052809291908181526020016000905b828210156109aa576000848152602090819020604080518082019091526002850290910180546001600160a01b03168252600190810154828401529083529092019101610962565b50505050905090565b6109dd7fb814ff4a26ea3ec5cd1fa579daad86324826254265f3acfec78303a19845b44933610342565b610a4f5760405162461bcd60e51b815260206004820152603f60248201527f4c69717569646974794d696e696e674d616e616765722e6f6e6c79526577617260448201527f644469737472696275746f723a207065726d697373696f6e2064656e696564006064820152608401610565565b600060045442610a5f9190612072565b9050600081600354610a719190612053565b42600455600754909150610a83575050565b80610a8c575050565b610ae16001600160a01b037f0000000000000000000000000000000000000000000000000000000000000000167f000000000000000000000000000000000000000000000000000000000000000030846115ba565b60005b600754811015610c1157600060078281548110610b0357610b03612113565b600091825260208083206040805180820190915260029093020180546001600160a01b0316835260010154908201819052600554919350610b449086612053565b610b4e9190612031565b825160408051602480820185905282518083039091018152604490910182526020810180517bffffffffffffffffffffffffffffffffffffffffffffffffffffffff16630b32e9c760e31b17905290519293506001600160a01b0390911691610bb79190611ef1565b6000604051808303816000865af19150503d8060008114610bf4576040519150601f19603f3d011682016040523d82523d6000602084013e610bf9565b606091505b50505050508080610c09906120cc565b915050610ae4565b506040516370a0823160e01b81523060048201526000907f00000000000000000000000000000000000000000000000000000000000000006001600160a01b0316906370a082319060240160206040518083038186803b158015610c7457600080fd5b505afa158015610c88573d6000803e3d6000fd5b505050506040513d601f19601f82011682018060405250810190610cac9190611ed8565b90506001811115610d0b57610d0b6001600160a01b037f0000000000000000000000000000000000000000000000000000000000000000167f0000000000000000000000000000000000000000000000000000000000000000836115f8565b817fdf29796aad820e4bb192f3a8d631b76519bcd2cbe77cc85af20e9df53cece086336040516001600160a01b03909116815260200160405180910390a2505050565b6000828152600160205260408120610d669083611628565b9392505050565b610d977fd9d917c4034cff8a8c5fa1e40f9fbaf906b827c33ae3ab1fcabbb616cb8ef24d33610342565b610e095760405162461bcd60e51b815260206004820152602c60248201527f546f6b656e53617665722e6f6e6c79546f6b656e53617665723a207065726d6960448201527f7373696f6e2064656e69656400000000000000000000000000000000000000006064820152608401610565565b610e1d6001600160a01b03841683836115f8565b826001600160a01b0316826001600160a01b0316610e383390565b6001600160a01b03167f30d87cec6b4c56cede1018725d1e6d9304e2f7ee6d25b004b7e2183f793f26bc84604051610e7291815260200190565b60405180910390a4505050565b610ea97f0603f2636f0ca34ae3ea5a23bb826e2bd2ffd59fb1c01edc1ba10fba2899d1ba33610342565b610f0f5760405162461bcd60e51b815260206004820152603160248201527f4c69717569646974794d696e696e674d616e616765722e6f6e6c79476f763a206044820152701c195c9b5a5cdcda5bdb8819195b9a5959607a1b6064820152608401610565565b6007548110610f865760405162461bcd60e51b815260206004820152603660248201527f4c69717569646974794d696e696e674d616e616765722e72656d6f7665506f6f60448201527f6c3a20506f6f6c20646f6573206e6f74206578697374000000000000000000006064820152608401610565565b610f8e6109b3565b600060078281548110610fa357610fa3612113565b6000918252602090912060029091020154600780546001600160a01b0390921692509083908110610fd657610fd6612113565b90600052602060002090600202016001015460056000828254610ff99190612072565b90915550506007805461100e90600190612072565b8154811061101e5761101e612113565b90600052602060002090600202016007838154811061103f5761103f612113565b600091825260209091208254600290920201805473ffffffffffffffffffffffffffffffffffffffff19166001600160a01b039092169190911781556001918201549101556007805480611095576110956120fd565b60008281526020808220600260001990940193840201805473ffffffffffffffffffffffffffffffffffffffff19168155600101829055919092556001600160a01b03831680835260069091526040808320805460ff1916905551909184917f18e9d3644c306f9be50ade92ee325ee173812431fa971a0b8d46f9eb707396019190a35050565b6007818154811061112c57600080fd5b6000918252602090912060029091020180546001909101546001600160a01b03909116915082565b61117e7f0603f2636f0ca34ae3ea5a23bb826e2bd2ffd59fb1c01edc1ba10fba2899d1ba33610342565b6111e45760405162461bcd60e51b815260206004820152603160248201527f4c69717569646974794d696e696e674d616e616765722e6f6e6c79476f763a206044820152701c195c9b5a5cdcda5bdb8819195b9a5959607a1b6064820152608401610565565b600754821061125b5760405162461bcd60e51b815260206004820152603860248201527f4c69717569646974794d696e696e674d616e616765722e61646a75737457656960448201527f6768743a20506f6f6c20646f6573206e6f7420657869737400000000000000006064820152608401610565565b6112636109b3565b60006007838154811061127857611278612113565b9060005260206000209060020201905080600101546005600082825461129e9190612072565b9250508190555081600560008282546112b79190612019565b90915550506001810182905580546040518381526001600160a01b039091169084907f4bd857a398c0fb71cc804d86dac2b437d1e5ca0b8a3161ec9638515c5d1997c29060200160405180910390a3505050565b60008181526001602052604081206104ac90611634565b610853828261163e565b6113368282611664565b5050565b6000610d66836001600160a01b038416611702565b60006001600160e01b03198216637965db0b60e01b14806104ac57506301ffc9a760e01b6001600160e01b03198316146104ac565b6000828152602081905260409020600101546113a08133611751565b6104d48383611664565b8015806114335750604051636eb1769f60e11b81523060048201526001600160a01b03838116602483015284169063dd62ed3e9060440160206040518083038186803b1580156113f957600080fd5b505afa15801561140d573d6000803e3d6000fd5b505050506040513d601f19601f820116820180604052508101906114319190611ed8565b155b6114a55760405162461bcd60e51b815260206004820152603660248201527f5361666545524332303a20617070726f76652066726f6d206e6f6e2d7a65726f60448201527f20746f206e6f6e2d7a65726f20616c6c6f77616e6365000000000000000000006064820152608401610565565b6040516001600160a01b0383166024820152604481018290526104d490849063095ea7b360e01b906064015b60408051601f198184030181529190526020810180517bffffffffffffffffffffffffffffffffffffffffffffffffffffffff166001600160e01b0319909316929092179091526117cf565b6001600160a01b038116331461159b5760405162461bcd60e51b815260206004820152602f60248201527f416363657373436f6e74726f6c3a2063616e206f6e6c792072656e6f756e636560448201527f20726f6c657320666f722073656c6600000000000000000000000000000000006064820152608401610565565b61133682826118b4565b6000610d66836001600160a01b038416611933565b6040516001600160a01b03808516602483015283166044820152606481018290526115f29085906323b872dd60e01b906084016114d1565b50505050565b6040516001600160a01b0383166024820152604481018290526104d490849063a9059cbb60e01b906064016114d1565b6000610d668383611a26565b60006104ac825490565b60008281526020819052604090206001015461165a8133611751565b6104d483836118b4565b6000828152602081815260408083206001600160a01b038516845290915290205460ff16611336576000828152602081815260408083206001600160a01b03851684529091529020805460ff191660011790556116be3390565b6001600160a01b0316816001600160a01b0316837f2f8788117e7eff1d82e926ec794901d17c78024a50270940304540a733656f0d60405160405180910390a45050565b6000818152600183016020526040812054611749575081546001818101845560008481526020808220909301849055845484825282860190935260409020919091556104ac565b5060006104ac565b6000828152602081815260408083206001600160a01b038516845290915290205460ff166113365761178d816001600160a01b03166014611a50565b611798836020611a50565b6040516020016117a9929190611f0d565b60408051601f198184030181529082905262461bcd60e51b825261056591600401611fe6565b6000611824826040518060400160405280602081526020017f5361666545524332303a206c6f772d6c6576656c2063616c6c206661696c6564815250856001600160a01b0316611bf99092919063ffffffff16565b8051909150156104d457808060200190518101906118429190611e25565b6104d45760405162461bcd60e51b815260206004820152602a60248201527f5361666545524332303a204552433230206f7065726174696f6e20646964206e60448201527f6f742073756363656564000000000000000000000000000000000000000000006064820152608401610565565b6000828152602081815260408083206001600160a01b038516845290915290205460ff1615611336576000828152602081815260408083206001600160a01b0385168085529252808320805460ff1916905551339285917ff6391f5c32d9c69d2a47ea670b442974b53935d1edc7fd64eb21e047a839171b9190a45050565b60008181526001830160205260408120548015611a1c576000611957600183612072565b855490915060009061196b90600190612072565b90508181146119d057600086600001828154811061198b5761198b612113565b90600052602060002001549050808760000184815481106119ae576119ae612113565b6000918252602080832090910192909255918252600188019052604090208390555b85548690806119e1576119e16120fd565b6001900381819060005260206000200160009055905585600101600086815260200190815260200160002060009055600193505050506104ac565b60009150506104ac565b6000826000018281548110611a3d57611a3d612113565b9060005260206000200154905092915050565b60606000611a5f836002612053565b611a6a906002612019565b67ffffffffffffffff811115611a8257611a82612129565b6040519080825280601f01601f191660200182016040528015611aac576020820181803683370190505b509050600360fc1b81600081518110611ac757611ac7612113565b60200101906001600160f81b031916908160001a905350600f60fb1b81600181518110611af657611af6612113565b60200101906001600160f81b031916908160001a9053506000611b1a846002612053565b611b25906001612019565b90505b6001811115611baa577f303132333435363738396162636465660000000000000000000000000000000085600f1660108110611b6657611b66612113565b1a60f81b828281518110611b7c57611b7c612113565b60200101906001600160f81b031916908160001a90535060049490941c93611ba3816120b5565b9050611b28565b508315610d665760405162461bcd60e51b815260206004820181905260248201527f537472696e67733a20686578206c656e67746820696e73756666696369656e746044820152606401610565565b6060611c088484600085611c10565b949350505050565b606082471015611c885760405162461bcd60e51b815260206004820152602660248201527f416464726573733a20696e73756666696369656e742062616c616e636520666f60448201527f722063616c6c00000000000000000000000000000000000000000000000000006064820152608401610565565b843b611cd65760405162461bcd60e51b815260206004820152601d60248201527f416464726573733a2063616c6c20746f206e6f6e2d636f6e74726163740000006044820152606401610565565b600080866001600160a01b03168587604051611cf29190611ef1565b60006040518083038185875af1925050503d8060008114611d2f576040519150601f19603f3d011682016040523d82523d6000602084013e611d34565b606091505b5091509150611d44828286611d4f565b979650505050505050565b60608315611d5e575081610d66565b825115611d6e5782518084602001fd5b8160405162461bcd60e51b81526004016105659190611fe6565b80356001600160a01b0381168114611d9f57600080fd5b919050565b600060208284031215611db657600080fd5b610d6682611d88565b600080600060608486031215611dd457600080fd5b611ddd84611d88565b9250611deb60208501611d88565b9150604084013590509250925092565b60008060408385031215611e0e57600080fd5b611e1783611d88565b946020939093013593505050565b600060208284031215611e3757600080fd5b81518015158114610d6657600080fd5b600060208284031215611e5957600080fd5b5035919050565b60008060408385031215611e7357600080fd5b82359150611e8360208401611d88565b90509250929050565b60008060408385031215611e9f57600080fd5b50508035926020909101359150565b600060208284031215611ec057600080fd5b81356001600160e01b031981168114610d6657600080fd5b600060208284031215611eea57600080fd5b5051919050565b60008251611f03818460208701612089565b9190910192915050565b7f416363657373436f6e74726f6c3a206163636f756e7420000000000000000000815260008351611f45816017850160208801612089565b7f206973206d697373696e6720726f6c65200000000000000000000000000000006017918401918201528351611f82816028840160208801612089565b01602801949350505050565b602080825282518282018190526000919060409081850190868401855b82811015611fd957815180516001600160a01b03168552860151868501529284019290850190600101611fab565b5091979650505050505050565b6020815260008251806020840152612005816040850160208701612089565b601f01601f19169190910160400192915050565b6000821982111561202c5761202c6120e7565b500190565b60008261204e57634e487b7160e01b600052601260045260246000fd5b500490565b600081600019048311821515161561206d5761206d6120e7565b500290565b600082821015612084576120846120e7565b500390565b60005b838110156120a457818101518382015260200161208c565b838111156115f25750506000910152565b6000816120c4576120c46120e7565b506000190190565b60006000198214156120e0576120e06120e7565b5060010190565b634e487b7160e01b600052601160045260246000fd5b634e487b7160e01b600052603160045260246000fd5b634e487b7160e01b600052603260045260246000fd5b634e487b7160e01b600052604160045260246000fdfea164736f6c6343000807000a4c69717569646974794d696e696e674d616e616765722e636f6e737472756374",
  "devdoc": {
    "kind": "dev",
    "methods": {
      "getRoleAdmin(bytes32)": {
        "details": "Returns the admin role that controls `role`. See {grantRole} and {revokeRole}. To change a role's admin, use {_setRoleAdmin}."
      },
      "getRoleMember(bytes32,uint256)": {
        "details": "Returns one of the accounts that have `role`. `index` must be a value between 0 and {getRoleMemberCount}, non-inclusive. Role bearers are not sorted in any particular way, and their ordering may change at any point. WARNING: When using {getRoleMember} and {getRoleMemberCount}, make sure you perform all queries on the same block. See the following https://forum.openzeppelin.com/t/iterating-over-elements-on-enumerableset-in-openzeppelin-contracts/2296[forum post] for more information."
      },
      "getRoleMemberCount(bytes32)": {
        "details": "Returns the number of accounts that have `role`. Can be used together with {getRoleMember} to enumerate all bearers of a role."
      },
      "grantRole(bytes32,address)": {
        "details": "Overload {grantRole} to track enumerable memberships"
      },
      "hasRole(bytes32,address)": {
        "details": "Returns `true` if `account` has been granted `role`."
      },
      "renounceRole(bytes32,address)": {
        "details": "Overload {renounceRole} to track enumerable memberships"
      },
      "revokeRole(bytes32,address)": {
        "details": "Overload {revokeRole} to track enumerable memberships"
      },
      "supportsInterface(bytes4)": {
        "details": "See {IERC165-supportsInterface}."
      }
    },
    "version": 1
  },
  "userdoc": {
    "kind": "user",
    "methods": {},
    "version": 1
  },
  "storageLayout": {
    "storage": [
      {
        "astId": 24,
        "contract": "contracts/LiquidityMiningManager.sol:LiquidityMiningManager",
        "label": "_roles",
        "offset": 0,
        "slot": "0",
        "type": "t_mapping(t_bytes32,t_struct(RoleData)19_storage)"
      },
      {
        "astId": 325,
        "contract": "contracts/LiquidityMiningManager.sol:LiquidityMiningManager",
        "label": "_roleMembers",
        "offset": 0,
        "slot": "1",
        "type": "t_mapping(t_bytes32,t_struct(AddressSet)4237_storage)"
      },
      {
        "astId": 4549,
        "contract": "contracts/LiquidityMiningManager.sol:LiquidityMiningManager",
        "label": "MAX_POOL_COUNT",
        "offset": 0,
        "slot": "2",
        "type": "t_uint256"
      },
      {
        "astId": 4556,
        "contract": "contracts/LiquidityMiningManager.sol:LiquidityMiningManager",
        "label": "rewardPerSecond",
        "offset": 0,
        "slot": "3",
        "type": "t_uint256"
      },
      {
        "astId": 4558,
        "contract": "contracts/LiquidityMiningManager.sol:LiquidityMiningManager",
        "label": "lastDistribution",
        "offset": 0,
        "slot": "4",
        "type": "t_uint256"
      },
      {
        "astId": 4560,
        "contract": "contracts/LiquidityMiningManager.sol:LiquidityMiningManager",
        "label": "totalWeight",
        "offset": 0,
        "slot": "5",
        "type": "t_uint256"
      },
      {
        "astId": 4564,
        "contract": "contracts/LiquidityMiningManager.sol:LiquidityMiningManager",
        "label": "poolAdded",
        "offset": 0,
        "slot": "6",
        "type": "t_mapping(t_address,t_bool)"
      },
      {
        "astId": 4568,
        "contract": "contracts/LiquidityMiningManager.sol:LiquidityMiningManager",
        "label": "pools",
        "offset": 0,
        "slot": "7",
        "type": "t_array(t_struct(Pool)4574_storage)dyn_storage"
      }
    ],
    "types": {
      "t_address": {
        "encoding": "inplace",
        "label": "address",
        "numberOfBytes": "20"
      },
      "t_array(t_bytes32)dyn_storage": {
        "base": "t_bytes32",
        "encoding": "dynamic_array",
        "label": "bytes32[]",
        "numberOfBytes": "32"
      },
      "t_array(t_struct(Pool)4574_storage)dyn_storage": {
        "base": "t_struct(Pool)4574_storage",
        "encoding": "dynamic_array",
        "label": "struct LiquidityMiningManager.Pool[]",
        "numberOfBytes": "32"
      },
      "t_bool": {
        "encoding": "inplace",
        "label": "bool",
        "numberOfBytes": "1"
      },
      "t_bytes32": {
        "encoding": "inplace",
        "label": "bytes32",
        "numberOfBytes": "32"
      },
      "t_contract(IBasePool)6553": {
        "encoding": "inplace",
        "label": "contract IBasePool",
        "numberOfBytes": "20"
      },
      "t_mapping(t_address,t_bool)": {
        "encoding": "mapping",
        "key": "t_address",
        "label": "mapping(address => bool)",
        "numberOfBytes": "32",
        "value": "t_bool"
      },
      "t_mapping(t_bytes32,t_struct(AddressSet)4237_storage)": {
        "encoding": "mapping",
        "key": "t_bytes32",
        "label": "mapping(bytes32 => struct EnumerableSet.AddressSet)",
        "numberOfBytes": "32",
        "value": "t_struct(AddressSet)4237_storage"
      },
      "t_mapping(t_bytes32,t_struct(RoleData)19_storage)": {
        "encoding": "mapping",
        "key": "t_bytes32",
        "label": "mapping(bytes32 => struct AccessControl.RoleData)",
        "numberOfBytes": "32",
        "value": "t_struct(RoleData)19_storage"
      },
      "t_mapping(t_bytes32,t_uint256)": {
        "encoding": "mapping",
        "key": "t_bytes32",
        "label": "mapping(bytes32 => uint256)",
        "numberOfBytes": "32",
        "value": "t_uint256"
      },
      "t_struct(AddressSet)4237_storage": {
        "encoding": "inplace",
        "label": "struct EnumerableSet.AddressSet",
        "members": [
          {
            "astId": 4236,
            "contract": "contracts/LiquidityMiningManager.sol:LiquidityMiningManager",
            "label": "_inner",
            "offset": 0,
            "slot": "0",
            "type": "t_struct(Set)3936_storage"
          }
        ],
        "numberOfBytes": "64"
      },
      "t_struct(Pool)4574_storage": {
        "encoding": "inplace",
        "label": "struct LiquidityMiningManager.Pool",
        "members": [
          {
            "astId": 4571,
            "contract": "contracts/LiquidityMiningManager.sol:LiquidityMiningManager",
            "label": "poolContract",
            "offset": 0,
            "slot": "0",
            "type": "t_contract(IBasePool)6553"
          },
          {
            "astId": 4573,
            "contract": "contracts/LiquidityMiningManager.sol:LiquidityMiningManager",
            "label": "weight",
            "offset": 0,
            "slot": "1",
            "type": "t_uint256"
          }
        ],
        "numberOfBytes": "64"
      },
      "t_struct(RoleData)19_storage": {
        "encoding": "inplace",
        "label": "struct AccessControl.RoleData",
        "members": [
          {
            "astId": 16,
            "contract": "contracts/LiquidityMiningManager.sol:LiquidityMiningManager",
            "label": "members",
            "offset": 0,
            "slot": "0",
            "type": "t_mapping(t_address,t_bool)"
          },
          {
            "astId": 18,
            "contract": "contracts/LiquidityMiningManager.sol:LiquidityMiningManager",
            "label": "adminRole",
            "offset": 0,
            "slot": "1",
            "type": "t_bytes32"
          }
        ],
        "numberOfBytes": "64"
      },
      "t_struct(Set)3936_storage": {
        "encoding": "inplace",
        "label": "struct EnumerableSet.Set",
        "members": [
          {
            "astId": 3931,
            "contract": "contracts/LiquidityMiningManager.sol:LiquidityMiningManager",
            "label": "_values",
            "offset": 0,
            "slot": "0",
            "type": "t_array(t_bytes32)dyn_storage"
          },
          {
            "astId": 3935,
            "contract": "contracts/LiquidityMiningManager.sol:LiquidityMiningManager",
            "label": "_indexes",
            "offset": 0,
            "slot": "1",
            "type": "t_mapping(t_bytes32,t_uint256)"
          }
        ],
        "numberOfBytes": "64"
      },
      "t_uint256": {
        "encoding": "inplace",
        "label": "uint256",
        "numberOfBytes": "32"
      }
    }
  }
}