{
  "address": "0x244FeAc37568242f57D1D188f186C9C30E6C289c",
  "abi": [
    {
      "inputs": [
        {
          "internalType": "address",
          "name": "_owner",
          "type": "address"
        },
        {
          "internalType": "address",
          "name": "_rewardsToken",
          "type": "address"
        },
        {
          "internalType": "address",
          "name": "_stakingToken",
          "type": "address"
        }
      ],
      "stateMutability": "nonpayable",
      "type": "constructor"
    },
    {
      "anonymous": false,
      "inputs": [
        {
          "indexed": false,
          "internalType": "address",
          "name": "oldOwner",
          "type": "address"
        },
        {
          "indexed": false,
          "internalType": "address",
          "name": "newOwner",
          "type": "address"
        }
      ],
      "name": "OwnerChanged",
      "type": "event"
    },
    {
      "anonymous": false,
      "inputs": [
        {
          "indexed": false,
          "internalType": "address",
          "name": "newOwner",
          "type": "address"
        }
      ],
      "name": "OwnerNominated",
      "type": "event"
    },
    {
      "anonymous": false,
      "inputs": [
        {
          "indexed": false,
          "internalType": "bool",
          "name": "isPaused",
          "type": "bool"
        }
      ],
      "name": "PauseChanged",
      "type": "event"
    },
    {
      "anonymous": false,
      "inputs": [
        {
          "indexed": false,
          "internalType": "address",
          "name": "token",
          "type": "address"
        },
        {
          "indexed": false,
          "internalType": "uint256",
          "name": "amount",
          "type": "uint256"
        }
      ],
      "name": "Recovered",
      "type": "event"
    },
    {
      "anonymous": false,
      "inputs": [
        {
          "indexed": false,
          "internalType": "uint256",
          "name": "reward",
          "type": "uint256"
        }
      ],
      "name": "RewardAdded",
      "type": "event"
    },
    {
      "anonymous": false,
      "inputs": [
        {
          "indexed": true,
          "internalType": "address",
          "name": "user",
          "type": "address"
        },
        {
          "indexed": false,
          "internalType": "uint256",
          "name": "reward",
          "type": "uint256"
        }
      ],
      "name": "RewardPaid",
      "type": "event"
    },
    {
      "anonymous": false,
      "inputs": [
        {
          "indexed": false,
          "internalType": "uint256",
          "name": "newDuration",
          "type": "uint256"
        }
      ],
      "name": "RewardsDurationUpdated",
      "type": "event"
    },
    {
      "anonymous": false,
      "inputs": [
        {
          "indexed": true,
          "internalType": "address",
          "name": "user",
          "type": "address"
        },
        {
          "indexed": false,
          "internalType": "uint256",
          "name": "amount",
          "type": "uint256"
        }
      ],
      "name": "Staked",
      "type": "event"
    },
    {
      "anonymous": false,
      "inputs": [
        {
          "indexed": true,
          "internalType": "address",
          "name": "user",
          "type": "address"
        },
        {
          "indexed": false,
          "internalType": "uint256",
          "name": "amount",
          "type": "uint256"
        }
      ],
      "name": "Withdrawn",
      "type": "event"
    },
    {
      "inputs": [],
      "name": "acceptOwnership",
      "outputs": [],
      "stateMutability": "nonpayable",
      "type": "function"
    },
    {
      "inputs": [
        {
          "internalType": "address",
          "name": "account",
          "type": "address"
        }
      ],
      "name": "balanceOf",
      "outputs": [
        {
          "internalType": "uint256",
          "name": "",
          "type": "uint256"
        }
      ],
      "stateMutability": "view",
      "type": "function"
    },
    {
      "inputs": [
        {
          "internalType": "address",
          "name": "account",
          "type": "address"
        }
      ],
      "name": "earned",
      "outputs": [
        {
          "internalType": "uint256",
          "name": "",
          "type": "uint256"
        }
      ],
      "stateMutability": "view",
      "type": "function"
    },
    {
      "inputs": [],
      "name": "exit",
      "outputs": [],
      "stateMutability": "nonpayable",
      "type": "function"
    },
    {
      "inputs": [],
      "name": "getReward",
      "outputs": [],
      "stateMutability": "nonpayable",
      "type": "function"
    },
    {
      "inputs": [],
      "name": "getRewardForDuration",
      "outputs": [
        {
          "internalType": "uint256",
          "name": "",
          "type": "uint256"
        }
      ],
      "stateMutability": "view",
      "type": "function"
    },
    {
      "inputs": [],
      "name": "lastPauseTime",
      "outputs": [
        {
          "internalType": "uint256",
          "name": "",
          "type": "uint256"
        }
      ],
      "stateMutability": "view",
      "type": "function"
    },
    {
      "inputs": [],
      "name": "lastTimeRewardApplicable",
      "outputs": [
        {
          "internalType": "uint256",
          "name": "",
          "type": "uint256"
        }
      ],
      "stateMutability": "view",
      "type": "function"
    },
    {
      "inputs": [],
      "name": "lastUpdateTime",
      "outputs": [
        {
          "internalType": "uint256",
          "name": "",
          "type": "uint256"
        }
      ],
      "stateMutability": "view",
      "type": "function"
    },
    {
      "inputs": [
        {
          "internalType": "uint256",
          "name": "a",
          "type": "uint256"
        },
        {
          "internalType": "uint256",
          "name": "b",
          "type": "uint256"
        }
      ],
      "name": "min",
      "outputs": [
        {
          "internalType": "uint256",
          "name": "",
          "type": "uint256"
        }
      ],
      "stateMutability": "pure",
      "type": "function"
    },
    {
      "inputs": [
        {
          "internalType": "address",
          "name": "_owner",
          "type": "address"
        }
      ],
      "name": "nominateNewOwner",
      "outputs": [],
      "stateMutability": "nonpayable",
      "type": "function"
    },
    {
      "inputs": [],
      "name": "nominatedOwner",
      "outputs": [
        {
          "internalType": "address",
          "name": "",
          "type": "address"
        }
      ],
      "stateMutability": "view",
      "type": "function"
    },
    {
      "inputs": [
        {
          "internalType": "uint256",
          "name": "reward",
          "type": "uint256"
        }
      ],
      "name": "notifyRewardAmount",
      "outputs": [],
      "stateMutability": "nonpayable",
      "type": "function"
    },
    {
      "inputs": [],
      "name": "owner",
      "outputs": [
        {
          "internalType": "address",
          "name": "",
          "type": "address"
        }
      ],
      "stateMutability": "view",
      "type": "function"
    },
    {
      "inputs": [],
      "name": "paused",
      "outputs": [
        {
          "internalType": "bool",
          "name": "",
          "type": "bool"
        }
      ],
      "stateMutability": "view",
      "type": "function"
    },
    {
      "inputs": [],
      "name": "periodFinish",
      "outputs": [
        {
          "internalType": "uint256",
          "name": "",
          "type": "uint256"
        }
      ],
      "stateMutability": "view",
      "type": "function"
    },
    {
      "inputs": [
        {
          "internalType": "address",
          "name": "tokenAddress",
          "type": "address"
        },
        {
          "internalType": "uint256",
          "name": "tokenAmount",
          "type": "uint256"
        }
      ],
      "name": "recoverERC20",
      "outputs": [],
      "stateMutability": "nonpayable",
      "type": "function"
    },
    {
      "inputs": [],
      "name": "rewardPerToken",
      "outputs": [
        {
          "internalType": "uint256",
          "name": "",
          "type": "uint256"
        }
      ],
      "stateMutability": "view",
      "type": "function"
    },
    {
      "inputs": [],
      "name": "rewardPerTokenStored",
      "outputs": [
        {
          "internalType": "uint256",
          "name": "",
          "type": "uint256"
        }
      ],
      "stateMutability": "view",
      "type": "function"
    },
    {
      "inputs": [],
      "name": "rewardRate",
      "outputs": [
        {
          "internalType": "uint256",
          "name": "",
          "type": "uint256"
        }
      ],
      "stateMutability": "view",
      "type": "function"
    },
    {
      "inputs": [
        {
          "internalType": "address",
          "name": "",
          "type": "address"
        }
      ],
      "name": "rewards",
      "outputs": [
        {
          "internalType": "uint256",
          "name": "",
          "type": "uint256"
        }
      ],
      "stateMutability": "view",
      "type": "function"
    },
    {
      "inputs": [],
      "name": "rewardsDuration",
      "outputs": [
        {
          "internalType": "uint256",
          "name": "",
          "type": "uint256"
        }
      ],
      "stateMutability": "view",
      "type": "function"
    },
    {
      "inputs": [],
      "name": "rewardsToken",
      "outputs": [
        {
          "internalType": "contract IERC20",
          "name": "",
          "type": "address"
        }
      ],
      "stateMutability": "view",
      "type": "function"
    },
    {
      "inputs": [
        {
          "internalType": "bool",
          "name": "_paused",
          "type": "bool"
        }
      ],
      "name": "setPaused",
      "outputs": [],
      "stateMutability": "nonpayable",
      "type": "function"
    },
    {
      "inputs": [
        {
          "internalType": "uint256",
          "name": "_rewardsDuration",
          "type": "uint256"
        }
      ],
      "name": "setRewardsDuration",
      "outputs": [],
      "stateMutability": "nonpayable",
      "type": "function"
    },
    {
      "inputs": [
        {
          "internalType": "uint256",
          "name": "amount",
          "type": "uint256"
        }
      ],
      "name": "stake",
      "outputs": [],
      "stateMutability": "nonpayable",
      "type": "function"
    },
    {
      "inputs": [
        {
          "internalType": "uint256",
          "name": "amount",
          "type": "uint256"
        },
        {
          "internalType": "uint256",
          "name": "deadline",
          "type": "uint256"
        },
        {
          "internalType": "uint8",
          "name": "v",
          "type": "uint8"
        },
        {
          "internalType": "bytes32",
          "name": "r",
          "type": "bytes32"
        },
        {
          "internalType": "bytes32",
          "name": "s",
          "type": "bytes32"
        }
      ],
      "name": "stakeWithPermit",
      "outputs": [],
      "stateMutability": "nonpayable",
      "type": "function"
    },
    {
      "inputs": [],
      "name": "stakingToken",
      "outputs": [
        {
          "internalType": "contract IERC20",
          "name": "",
          "type": "address"
        }
      ],
      "stateMutability": "view",
      "type": "function"
    },
    {
      "inputs": [],
      "name": "totalSupply",
      "outputs": [
        {
          "internalType": "uint256",
          "name": "",
          "type": "uint256"
        }
      ],
      "stateMutability": "view",
      "type": "function"
    },
    {
      "inputs": [
        {
          "internalType": "address",
          "name": "",
          "type": "address"
        }
      ],
      "name": "userRewardPerTokenPaid",
      "outputs": [
        {
          "internalType": "uint256",
          "name": "",
          "type": "uint256"
        }
      ],
      "stateMutability": "view",
      "type": "function"
    },
    {
      "inputs": [
        {
          "internalType": "uint256",
          "name": "amount",
          "type": "uint256"
        }
      ],
      "name": "withdraw",
      "outputs": [],
      "stateMutability": "nonpayable",
      "type": "function"
    }
  ],
  "transactionHash": "0xf5f94cd4fb0a11c3aba5e6b90500b929539a3da69391f579210fa448b69abc48",
  "args": [
    "0xCAa58677fa6a5437B0eDD37659f94DdBEa575945",
    "0x23FF74Af1a1e8Ef4433d761943Eb164F927bA2e2",
    "0x9b4b3756b352da98e154a30a0033069a83a3be51"
  ],
  "solcInputHash": "013fc51a0e014098283a0e7bc80bf1b8",
  "bytecode": "0x6080604052600060065560006007556301e1338060085534801561002257600080fd5b50604051611b87380380611b878339818101604052606081101561004557600080fd5b50805160208201516040909201516001600055909190826001600160a01b0381166100b7576040805162461bcd60e51b815260206004820152601960248201527f4f776e657220616464726573732063616e6e6f74206265203000000000000000604482015290519081900360640190fd5b600180546001600160a01b0319166001600160a01b0383169081179091556040805160008152602081019290925280517fb532073b38c83145e3e5135377a08bf9aab55bc0fd7c1179cd4fb995d2a5159c9281900390910190a1506001546001600160a01b0316610163576040805162461bcd60e51b815260206004820152601160248201527013dddb995c881b5d5cdd081899481cd95d607a1b604482015290519081900360640190fd5b60048054610100600160a81b0319166101006001600160a01b0394851602179055600580546001600160a01b03191691909216179055506119de806101a96000396000f3fe608060405234801561001057600080fd5b50600436106101e45760003560e01c80637ae2b5c71161010f578063c8f33c91116100a2578063df136d6511610071578063df136d6514610445578063e9fad8ee1461044d578063ebe2b12b14610455578063ecd9ba821461045d576101e4565b8063c8f33c9114610410578063cc1a378f14610418578063cd3daf9d14610435578063d1af0c7d1461043d576101e4565b80638b876347116100de5780638b876347146103bd5780638da5cb5b146103e357806391b4ded9146103eb578063a694fc3a146103f3576101e4565b80637ae2b5c71461035e5780637b0a47ee1461038157806380faa57d146103895780638980f11f14610391576101e4565b8063386a9525116101875780635c975abb116101565780635c975abb1461030c57806370a082311461032857806372f702f31461034e57806379ba509714610356576101e4565b8063386a9525146102bb5780633c6b16ab146102c35780633d18b912146102e057806353a47bb7146102e8576101e4565b806316c38b3c116101c357806316c38b3c1461026f57806318160ddd1461028e5780631c1f78eb146102965780632e1a7d4d1461029e576101e4565b80628cc262146101e95780630700037d146102215780631627540c14610247575b600080fd5b61020f600480360360208110156101ff57600080fd5b50356001600160a01b0316610495565b60408051918252519081900360200190f35b61020f6004803603602081101561023757600080fd5b50356001600160a01b031661052b565b61026d6004803603602081101561025d57600080fd5b50356001600160a01b031661053d565b005b61026d6004803603602081101561028557600080fd5b503515156105a6565b61020f610620565b61020f610627565b61026d600480360360208110156102b457600080fd5b5035610645565b61020f6107f3565b61026d600480360360208110156102d957600080fd5b50356107f9565b61026d610a11565b6102f0610b52565b604080516001600160a01b039092168252519081900360200190f35b610314610b61565b604080519115158252519081900360200190f35b61020f6004803603602081101561033e57600080fd5b50356001600160a01b0316610b6a565b6102f0610b85565b61026d610b94565b61020f6004803603604081101561037457600080fd5b5080359060200135610c5d565b61020f610c75565b61020f610c7b565b61026d600480360360408110156103a757600080fd5b506001600160a01b038135169060200135610c89565b61020f600480360360208110156103d357600080fd5b50356001600160a01b0316610d65565b6102f0610d77565b61020f610d86565b61026d6004803603602081101561040957600080fd5b5035610d8c565b61020f610f6e565b61026d6004803603602081101561042e57600080fd5b5035610f74565b61020f610ff7565b6102f0611051565b61020f611065565b61026d61106b565b61020f61108e565b61026d600480360360a081101561047357600080fd5b5080359060208101359060ff6040820135169060608101359060800135611094565b6001600160a01b0381166000908152600c6020908152604080832054600b909252822054610525919061051990670de0b6b3a76400009061050d906104e8906104dc610ff7565b9063ffffffff6112c916565b6001600160a01b0388166000908152600e60205260409020549063ffffffff61130b16565b9063ffffffff61136416565b9063ffffffff6113a616565b92915050565b600c6020526000908152604090205481565b610545611400565b600280546001600160a01b03831673ffffffffffffffffffffffffffffffffffffffff19909116811790915560408051918252517f906a1c6bd7e3091ea86693dd029a831c19049ce77f1dce2ce0bab1cacbabce229181900360200190a150565b6105ae611400565b60045460ff16151581151514156105c45761061d565b6004805460ff1916821515179081905560ff16156105e157426003555b6004546040805160ff90921615158252517f8fb6c181ee25a520cf3dd6565006ef91229fcfe5a989566c2a3b8c115570cec59181900360200190a15b50565b600d545b90565b600061064060085460075461130b90919063ffffffff16565b905090565b6002600054141561069d576040805162461bcd60e51b815260206004820152601f60248201527f5265656e7472616e637947756172643a207265656e7472616e742063616c6c00604482015290519081900360640190fd5b6002600055336106ab610ff7565b600a556106b6610c7b565b6009556001600160a01b038116156106fd576106d181610495565b6001600160a01b0382166000908152600c6020908152604080832093909355600a54600b909152919020555b60008211610752576040805162461bcd60e51b815260206004820152601160248201527f43616e6e6f742077697468647261772030000000000000000000000000000000604482015290519081900360640190fd5b600d54610765908363ffffffff6112c916565b600d55336000908152600e6020526040902054610788908363ffffffff6112c916565b336000818152600e60205260409020919091556005546107b4916001600160a01b039091169084611449565b60408051838152905133917f7084f5476618d8e60b11ef0d7d3f06914655adb8793e28ff7f018d4c76d505d5919081900360200190a250506001600055565b60085481565b610801611400565b600061080b610ff7565b600a55610816610c7b565b6009556001600160a01b0381161561085d5761083181610495565b6001600160a01b0382166000908152600c6020908152604080832093909355600a54600b909152919020555b60065442106108825760085461087a90839063ffffffff61136416565b6007556108d1565b600654600090610898904263ffffffff6112c916565b905060006108b16007548361130b90919063ffffffff16565b6008549091506108cb9061050d868463ffffffff6113a616565b60075550505b60048054604080516370a0823160e01b81523093810193909352516000926101009092046001600160a01b0316916370a08231916024808301926020929190829003018186803b15801561092457600080fd5b505afa158015610938573d6000803e3d6000fd5b505050506040513d602081101561094e57600080fd5b505160085490915061096790829063ffffffff61136416565b60075411156109bd576040805162461bcd60e51b815260206004820152601860248201527f50726f76696465642072657761726420746f6f20686967680000000000000000604482015290519081900360640190fd5b4260098190556008546109d6919063ffffffff6113a616565b6006556040805184815290517fde88a922e0d3b88b24e9623efeb464919c6bf9f66857a65e2bfcf2ce87a9433d9181900360200190a1505050565b60026000541415610a69576040805162461bcd60e51b815260206004820152601f60248201527f5265656e7472616e637947756172643a207265656e7472616e742063616c6c00604482015290519081900360640190fd5b600260005533610a77610ff7565b600a55610a82610c7b565b6009556001600160a01b03811615610ac957610a9d81610495565b6001600160a01b0382166000908152600c6020908152604080832093909355600a54600b909152919020555b336000908152600c60205260409020548015610b4957336000818152600c6020526040812055600454610b12916101009091046001600160a01b0316908363ffffffff61144916565b60408051828152905133917fe2403640ba68fed3a2f88b7557551d1993f84b99bb10ff833f0cf8db0c5e0486919081900360200190a25b50506001600055565b6002546001600160a01b031681565b60045460ff1681565b6001600160a01b03166000908152600e602052604090205490565b6005546001600160a01b031681565b6002546001600160a01b03163314610bdd5760405162461bcd60e51b81526004018080602001828103825260358152602001806118ba6035913960400191505060405180910390fd5b600154600254604080516001600160a01b03938416815292909116602083015280517fb532073b38c83145e3e5135377a08bf9aab55bc0fd7c1179cd4fb995d2a5159c9281900390910190a1600280546001805473ffffffffffffffffffffffffffffffffffffffff199081166001600160a01b03841617909155169055565b6000818310610c6c5781610c6e565b825b9392505050565b60075481565b600061064042600654610c5d565b610c91611400565b6005546001600160a01b03838116911614801590610cc257506004546001600160a01b038381166101009092041614155b610cfd5760405162461bcd60e51b815260040180806020018281038252602d81526020018061197b602d913960400191505060405180910390fd5b600154610d1d906001600160a01b0384811691168363ffffffff61144916565b604080516001600160a01b03841681526020810183905281517f8c1256b8896378cd5044f80c202f9772b9d77dc85c8a6eb51967210b09bfaa28929181900390910190a15050565b600b6020526000908152604090205481565b6001546001600160a01b031681565b60035481565b60026000541415610de4576040805162461bcd60e51b815260206004820152601f60248201527f5265656e7472616e637947756172643a207265656e7472616e742063616c6c00604482015290519081900360640190fd5b600260005560045460ff1615610e2b5760405162461bcd60e51b815260040180806020018281038252603c81526020018061193f603c913960400191505060405180910390fd5b33610e34610ff7565b600a55610e3f610c7b565b6009556001600160a01b03811615610e8657610e5a81610495565b6001600160a01b0382166000908152600c6020908152604080832093909355600a54600b909152919020555b60008211610ecc576040805162461bcd60e51b815260206004820152600e60248201526d043616e6e6f74207374616b6520360941b604482015290519081900360640190fd5b600d54610edf908363ffffffff6113a616565b600d55336000908152600e6020526040902054610f02908363ffffffff6113a616565b336000818152600e6020526040902091909155600554610f2f916001600160a01b039091169030856114b5565b60408051838152905133917f9e71bc8eea02a63969f509818f2dafb9254532904319f9dbda79b67bd34a5f3d919081900360200190a250506001600055565b60095481565b610f7c611400565b6006544211610fbc5760405162461bcd60e51b81526004018080602001828103825260588152602001806118626058913960600191505060405180910390fd5b60088190556040805182815290517ffb46ca5a5e06d4540d6387b930a7c978bce0db5f449ec6b3f5d07c6e1d44f2d39181900360200190a150565b6000600d546000141561100d5750600a54610624565b610640611042600d5461050d670de0b6b3a76400006110366007546110366009546104dc610c7b565b9063ffffffff61130b16565b600a549063ffffffff6113a616565b60045461010090046001600160a01b031681565b600a5481565b336000908152600e602052604090205461108490610645565b61108c610a11565b565b60065481565b600260005414156110ec576040805162461bcd60e51b815260206004820152601f60248201527f5265656e7472616e637947756172643a207265656e7472616e742063616c6c00604482015290519081900360640190fd5b6002600055336110fa610ff7565b600a55611105610c7b565b6009556001600160a01b0381161561114c5761112081610495565b6001600160a01b0382166000908152600c6020908152604080832093909355600a54600b909152919020555b60008611611192576040805162461bcd60e51b815260206004820152600e60248201526d043616e6e6f74207374616b6520360941b604482015290519081900360640190fd5b600d546111a5908763ffffffff6113a616565b600d55336000908152600e60205260409020546111c8908763ffffffff6113a616565b336000818152600e602052604080822093909355600554835163d505accf60e01b81526004810193909352306024840152604483018a90526064830189905260ff8816608484015260a4830187905260c4830186905292516001600160a01b039093169263d505accf9260e480820193929182900301818387803b15801561124f57600080fd5b505af1158015611263573d6000803e3d6000fd5b505060055461128692506001600160a01b0316905033308963ffffffff6114b516565b60408051878152905133917f9e71bc8eea02a63969f509818f2dafb9254532904319f9dbda79b67bd34a5f3d919081900360200190a25050600160005550505050565b6000610c6e83836040518060400160405280601e81526020017f536166654d6174683a207375627472616374696f6e206f766572666c6f77000081525061152a565b60008261131a57506000610525565b8282028284828161132757fe5b0414610c6e5760405162461bcd60e51b815260040180806020018281038252602181526020018061191e6021913960400191505060405180910390fd5b6000610c6e83836040518060400160405280601a81526020017f536166654d6174683a206469766973696f6e206279207a65726f0000000000008152506115c1565b600082820183811015610c6e576040805162461bcd60e51b815260206004820152601b60248201527f536166654d6174683a206164646974696f6e206f766572666c6f770000000000604482015290519081900360640190fd5b6001546001600160a01b0316331461108c5760405162461bcd60e51b815260040180806020018281038252602f8152602001806118ef602f913960400191505060405180910390fd5b604080516001600160a01b038416602482015260448082018490528251808303909101815260649091019091526020810180517bffffffffffffffffffffffffffffffffffffffffffffffffffffffff1663a9059cbb60e01b1790526114b0908490611626565b505050565b604080516001600160a01b0380861660248301528416604482015260648082018490528251808303909101815260849091019091526020810180517bffffffffffffffffffffffffffffffffffffffffffffffffffffffff166323b872dd60e01b179052611524908590611626565b50505050565b600081848411156115b95760405162461bcd60e51b81526004018080602001828103825283818151815260200191508051906020019080838360005b8381101561157e578181015183820152602001611566565b50505050905090810190601f1680156115ab5780820380516001836020036101000a031916815260200191505b509250505060405180910390fd5b505050900390565b600081836116105760405162461bcd60e51b815260206004820181815283516024840152835190928392604490910191908501908083836000831561157e578181015183820152602001611566565b50600083858161161c57fe5b0495945050505050565b606061167b826040518060400160405280602081526020017f5361666545524332303a206c6f772d6c6576656c2063616c6c206661696c6564815250856001600160a01b03166116d79092919063ffffffff16565b8051909150156114b05780806020019051602081101561169a57600080fd5b50516114b05760405162461bcd60e51b815260040180806020018281038252602a8152602001806119a8602a913960400191505060405180910390fd5b60606116e684846000856116ee565b949350505050565b60606116f98561185b565b61174a576040805162461bcd60e51b815260206004820152601d60248201527f416464726573733a2063616c6c20746f206e6f6e2d636f6e7472616374000000604482015290519081900360640190fd5b60006060866001600160a01b031685876040518082805190602001908083835b602083106117895780518252601f19909201916020918201910161176a565b6001836020036101000a03801982511681845116808217855250505050505090500191505060006040518083038185875af1925050503d80600081146117eb576040519150601f19603f3d011682016040523d82523d6000602084013e6117f0565b606091505b509150915081156118045791506116e69050565b8051156118145780518082602001fd5b60405162461bcd60e51b815260206004820181815286516024840152865187939192839260440191908501908083836000831561157e578181015183820152602001611566565b3b15159056fe50726576696f7573207265776172647320706572696f64206d75737420626520636f6d706c657465206265666f7265206368616e67696e6720746865206475726174696f6e20666f7220746865206e657720706572696f64596f75206d757374206265206e6f6d696e61746564206265666f726520796f752063616e20616363657074206f776e6572736869704f6e6c792074686520636f6e7472616374206f776e6572206d617920706572666f726d207468697320616374696f6e536166654d6174683a206d756c7469706c69636174696f6e206f766572666c6f775468697320616374696f6e2063616e6e6f7420626520706572666f726d6564207768696c652074686520636f6e74726163742069732070617573656443616e6e6f7420776974686472617720746865207374616b696e67206f72207265776172647320746f6b656e735361666545524332303a204552433230206f7065726174696f6e20646964206e6f742073756363656564a164736f6c6343000607000a",
  "devdoc": {
    "methods": {
      "setPaused(bool)": {
        "details": "Only the contract owner may call this."
      }
    }
  },
  "userdoc": {
    "methods": {
      "setPaused(bool)": {
        "notice": "Change the paused state of the contract"
      }
    },
    "notice": "/// src/staking-rewards.sol"
  },
  "storageLayout": {
    "storage": [
      {
        "astId": 1377,
        "contract": "contracts/StakingRewards.sol:StakingRewards",
        "label": "_status",
        "offset": 0,
        "slot": "0",
        "type": "t_uint256"
      },
      {
        "astId": 1198,
        "contract": "contracts/StakingRewards.sol:StakingRewards",
        "label": "owner",
        "offset": 0,
        "slot": "1",
        "type": "t_address"
      },
      {
        "astId": 1200,
        "contract": "contracts/StakingRewards.sol:StakingRewards",
        "label": "nominatedOwner",
        "offset": 0,
        "slot": "2",
        "type": "t_address"
      },
      {
        "astId": 1307,
        "contract": "contracts/StakingRewards.sol:StakingRewards",
        "label": "lastPauseTime",
        "offset": 0,
        "slot": "3",
        "type": "t_uint256"
      },
      {
        "astId": 1309,
        "contract": "contracts/StakingRewards.sol:StakingRewards",
        "label": "paused",
        "offset": 0,
        "slot": "4",
        "type": "t_bool"
      },
      {
        "astId": 1437,
        "contract": "contracts/StakingRewards.sol:StakingRewards",
        "label": "rewardsToken",
        "offset": 1,
        "slot": "4",
        "type": "t_contract(IERC20)293"
      },
      {
        "astId": 1439,
        "contract": "contracts/StakingRewards.sol:StakingRewards",
        "label": "stakingToken",
        "offset": 0,
        "slot": "5",
        "type": "t_contract(IERC20)293"
      },
      {
        "astId": 1442,
        "contract": "contracts/StakingRewards.sol:StakingRewards",
        "label": "periodFinish",
        "offset": 0,
        "slot": "6",
        "type": "t_uint256"
      },
      {
        "astId": 1445,
        "contract": "contracts/StakingRewards.sol:StakingRewards",
        "label": "rewardRate",
        "offset": 0,
        "slot": "7",
        "type": "t_uint256"
      },
      {
        "astId": 1448,
        "contract": "contracts/StakingRewards.sol:StakingRewards",
        "label": "rewardsDuration",
        "offset": 0,
        "slot": "8",
        "type": "t_uint256"
      },
      {
        "astId": 1450,
        "contract": "contracts/StakingRewards.sol:StakingRewards",
        "label": "lastUpdateTime",
        "offset": 0,
        "slot": "9",
        "type": "t_uint256"
      },
      {
        "astId": 1452,
        "contract": "contracts/StakingRewards.sol:StakingRewards",
        "label": "rewardPerTokenStored",
        "offset": 0,
        "slot": "10",
        "type": "t_uint256"
      },
      {
        "astId": 1456,
        "contract": "contracts/StakingRewards.sol:StakingRewards",
        "label": "userRewardPerTokenPaid",
        "offset": 0,
        "slot": "11",
        "type": "t_mapping(t_address,t_uint256)"
      },
      {
        "astId": 1460,
        "contract": "contracts/StakingRewards.sol:StakingRewards",
        "label": "rewards",
        "offset": 0,
        "slot": "12",
        "type": "t_mapping(t_address,t_uint256)"
      },
      {
        "astId": 1462,
        "contract": "contracts/StakingRewards.sol:StakingRewards",
        "label": "_totalSupply",
        "offset": 0,
        "slot": "13",
        "type": "t_uint256"
      },
      {
        "astId": 1466,
        "contract": "contracts/StakingRewards.sol:StakingRewards",
        "label": "_balances",
        "offset": 0,
        "slot": "14",
        "type": "t_mapping(t_address,t_uint256)"
      }
    ],
    "types": {
      "t_address": {
        "encoding": "inplace",
        "label": "address",
        "numberOfBytes": "20"
      },
      "t_bool": {
        "encoding": "inplace",
        "label": "bool",
        "numberOfBytes": "1"
      },
      "t_contract(IERC20)293": {
        "encoding": "inplace",
        "label": "contract IERC20",
        "numberOfBytes": "20"
      },
      "t_mapping(t_address,t_uint256)": {
        "encoding": "mapping",
        "key": "t_address",
        "label": "mapping(address => uint256)",
        "numberOfBytes": "32",
        "value": "t_uint256"
      },
      "t_uint256": {
        "encoding": "inplace",
        "label": "uint256",
        "numberOfBytes": "32"
      }
    }
  }
}